{
  "contractName": "Ownable",
  "abi": [
    {
      "constant": true,
      "inputs": [],
      "name": "owner",
      "outputs": [
        {
          "name": "",
          "type": "address"
        }
      ],
      "payable": false,
      "stateMutability": "view",
      "type": "function"
    },
    {
      "inputs": [],
      "payable": false,
      "stateMutability": "nonpayable",
      "type": "constructor"
    }
  ],
  "bytecode": "0x608060405234801561001057600080fd5b50336000806101000a81548173ffffffffffffffffffffffffffffffffffffffff021916908373ffffffffffffffffffffffffffffffffffffffff16021790555060e98061005f6000396000f300608060405260043610603f576000357c0100000000000000000000000000000000000000000000000000000000900463ffffffff1680638da5cb5b146044575b600080fd5b348015604f57600080fd5b5060566098565b604051808273ffffffffffffffffffffffffffffffffffffffff1673ffffffffffffffffffffffffffffffffffffffff16815260200191505060405180910390f35b6000809054906101000a900473ffffffffffffffffffffffffffffffffffffffff16815600a165627a7a72305820b679a493c11c53e18bfad3e3d2625093c647fd439ae6b5281a16f2448859f3030029",
  "source": "pragma solidity ^0.4.4;\r\ncontract Ownable{\r\n  address public owner;\r\n  constructor() public {\r\n      owner=msg.sender;\r\n  }\r\n  modifier ownerOnly{\r\n      require(owner==msg.sender);\r\n      _;\r\n  }\r\n  function transferOwnership(address newOwner) internal ownerOnly{\r\n      require(newOwner!=address(0));\r\n      owner=newOwner;\r\n  }\r\n}\r\n\r\ncontract TradeRegulation is Ownable{\r\n    //trace\r\n    //The trace functionality is designed in the way that when a party produces a product\r\n    //it needs to upload the information regarding the product onto the blockchain. The proofstatus of\r\n    //that specific information will be set as pending right after the info is uploaded. By the time the receiver\r\n    //received the product, it can choose either to approve or reject it after careful examination. If it rejects it,\r\n    //further resolving actions will be executed.\r\n\r\n    struct Proof {//connect name to address\r\n        string location;\r\n        uint productID;\r\n        address owner;\r\n        proofStatus proof ;\r\n        address nextOwner;\r\n        bytes photoHash;\r\n    }\r\n\r\n    enum proofStatus {\r\n        approved,\r\n        pending,\r\n        rejected\r\n    }\r\n\r\n    mapping(uint=>Proof[]) trace;  //for a single product, there is only one supply chain\r\n\r\n    //@param pI = productID\r\n    //@param address of the next Owner\r\n    //@param the location of the checkpoint\r\n    //initialize a supply chain (done by raw material producer)\r\n    /*function initSC(uint pI, address next, string loca, bytes pho){\r\n         Proof temp;\r\n         temp.location = loca;\r\n         temp.nextOwner = next;\r\n         temp.owner = msg.sender; //could be modified\r\n         temp.proof = proofStatus.pending;\r\n         temp.photo = pho;\r\n         trace[pI].push(temp);\r\n    }\r\n    */\r\n\r\n     function checkApproved (uint pI) returns (bool){\r\n            require(trace[pI].length != 0);\r\n                    if (trace[pI][trace[pI].length-1].proof == proofStatus.approved){\r\n                        return true;\r\n                    }\r\n                    return false;\r\n     }\r\n\r\n     function approve(uint pI, address next)\r\n        {\r\n            require(trace[pI].length != 0);\r\n            if (msg.sender == trace[pI][trace[pI].length-1].owner){\r\n                trace[pI][trace[pI].length-1].proof = proofStatus.approved ;\r\n            }\r\n\r\n        }\r\n\r\n     function reject (uint pI, address next)\r\n        {\r\n            require(trace[pI].length != 0);\r\n            if (msg.sender == trace[pI][trace[pI].length-1].owner){\r\n                trace[pI][trace[pI].length-1].proof = proofStatus.rejected ;\r\n            }\r\n        }\r\n\r\n    //@param pI = productID\r\n    //@param  status = whether you approve it or not\r\n    //approve that the status of the product is correct\r\n\r\n    function uploadInfo (uint pI, proofStatus status, address next, string location, bytes photo)\r\n    {\r\n            if (checkApproved(pI)){\r\n            Proof temp;\r\n            temp.location = location;\r\n            temp.nextOwner = next;\r\n            temp.owner = msg.sender;\r\n            temp.photoHash=photo;\r\n            trace[pI].push(temp);\r\n        }\r\n    }\r\n\r\n    function checkNodes (uint pI, uint stage) returns (string, address, proofStatus, address){\r\n        Proof storage temp = trace[pI][stage];\r\n        return(temp.location, temp.owner, temp.proof, temp.nextOwner );//could be changed\r\n    }\r\n\r\n    //trace\r\n  enum Status{\r\n      NOT_UPLOADED,\r\n      UNDER_REVIEW,\r\n      APPROVED,\r\n      REJECTED,\r\n      PARTIALLY_APPROVED\r\n  }\r\n  struct doc{\r\n      mapping(uint=>bytes) versionDir;\r\n      Status stat;\r\n      uint version;\r\n  }\r\n  struct LetterOfCredit{\r\n      uint numDays;\r\n      uint creditAmt;\r\n      Status stat;\r\n  }\r\n  /*\r\n  Struct that has characteristics of number of days before payment,\r\n  the owed money amount, and the status of the invoice.\r\n  */\r\n  struct Invoice{\r\n      uint numDays;\r\n      uint owedAmt;\r\n      Status stat;\r\n  }\r\n  /*\r\n  Struct with characteristics of a transaction between parties in supply chain.\r\n  */\r\n  struct Tx{\r\n       address[] tradeParties;\r\n       mapping(address=>bytes32) tradePartiesRole;\r\n       mapping(bytes32=>doc) typeToDoc;\r\n       mapping(bytes32 => address) ethAddressByRole;\r\n       LetterOfCredit loc;\r\n       Invoice inv;\r\n       uint insuranceAmt;\r\n       uint shippingDate;\r\n       uint locIssueDate;\r\n       uint version;\r\n       uint objCount;\r\n       bytes32 tradeId;\r\n   }\r\n   mapping(bytes32=>Tx) trades;\r\n   mapping(bytes32=>uint) amountCondition;\r\n   event TradeCreated(bytes32 id);\r\n   event DocumentUploaded(bytes32 id, bytes32 docType);\r\n   event SellerPayed(bytes32 id, bool success);\r\n   event InsurerPayed(bytes32 id);\r\n   event DepositMade(bytes32 id, uint amount);\r\n\r\n   function createTrade(bytes32 uid, address[] tradeParties, bytes32[] tradePartiesRole, uint objCount) {\r\n    trades[uid].tradeParties = tradeParties;\r\n    for (uint i = 0; i < tradeParties.length; i++) {\r\n      trades[uid].tradePartiesRole[tradeParties[i]] = tradePartiesRole[i];\r\n    }\r\n    trades[uid].objCount=objCount;\r\n    TradeCreated(uid);\r\n   }\r\n\r\n   function upload(bytes32 uid, address sender, bytes32 docType, bytes _hash) {\r\n    bytes32 role = trades[uid].tradePartiesRole[sender];\r\n    if (isUploadAllowed(role, docType)) {\r\n      uint currIndex = trades[uid].typeToDoc[docType].version++;\r\n      trades[uid].typeToDoc[docType].versionDir[currIndex] = _hash;\r\n      trades[uid].typeToDoc[docType].stat = Status.UNDER_REVIEW;\r\n      DocumentUploaded(uid,docType);\r\n    } else return;\r\n  }\r\n  function isUploadAllowed(bytes32 role, bytes32 docType) internal returns(bool success) {\r\n     bool isAllowed = false;\r\n     if ((role == \"buyer\" && (docType == \"PurchaseOrder\")) ||\r\n       ((role == \"seller\") && (docType == \"Invoice\")) ||\r\n       (role == \"shipper\" && docType == \"BillOfLading\") || (role == \"insurer\" && docType == \"InuranceQuotation\")) {\r\n       isAllowed = true;\r\n     }\r\n     return isAllowed;\r\n   }\r\n   function payToSeller(bytes32 id) {\r\n   if(!isAmtMet) {\r\n    revert(\"Incorrect Amount Received!\");\r\n   }\r\n     if(now>trades[id].shippingDate+trades[id].loc.numDays && trades[id].shippingDate<(trades[id].locIssueDate+trades[id].loc.numDays)) {\r\n       trades[id].ethAddressByRole[\"seller\"].transfer(trades[id].loc.creditAmt);\r\n       SellerPayed(id, true);\r\n     }\r\n     SellerPayed(id, false);\r\n   }\r\n   function payToInsurer(bytes32 id) {\r\n     trades[id].ethAddressByRole[\"insurer\"].transfer(trades[id].insuranceAmt);\r\n     InsurerPayed(id);\r\n   }\r\n   bool isAmtMet=false;\r\n   function isAmountMet(uint amountReceived, bytes32 id) returns (bool) {\r\n    if(trades[id].objCount==amountReceived) {\r\n      isAmtMet=true;\r\n      return true;\r\n    }\r\n    isAmtMet=false;\r\n    return false;\r\n   }\r\n   function depositFunds(bytes32 id) payable{\r\n\r\n    DepositMade(id, msg.value);\r\n   }\r\n}\r\n",
  "sourcePath": "C:\\Users\\hlee9\\OneDrive\\Documents\\Github\\hello-world\\contracts\\mainContract.sol",
  "compiler": {
    "name": "solc",
    "version": "0.4.24+commit.e67f0147.Emscripten.clang"
  },
  "schemaVersion": "2.0.0",
  "updatedAt": "2018-07-04T09:18:57.057Z"
}