{
  "contractName": "TemperatureRegulation",
  "abi": [
    {
      "constant": true,
      "inputs": [],
      "name": "owner",
      "outputs": [
        {
          "name": "",
          "type": "address"
        }
      ],
      "payable": false,
      "stateMutability": "view",
      "type": "function"
    },
    {
      "inputs": [
        {
          "name": "_minTemp",
          "type": "int256"
        },
        {
          "name": "_maxTemp",
          "type": "int256"
        },
        {
          "name": "loc",
          "type": "string"
        },
        {
          "name": "tempWriter",
          "type": "address"
        }
      ],
      "payable": false,
      "stateMutability": "nonpayable",
      "type": "constructor"
    },
    {
      "constant": false,
      "inputs": [
        {
          "name": "allMeasurements",
          "type": "int256[]"
        },
        {
          "name": "emptyArr",
          "type": "int256[]"
        }
      ],
      "name": "fillFailArray",
      "outputs": [],
      "payable": false,
      "stateMutability": "nonpayable",
      "type": "function"
    },
    {
      "constant": false,
      "inputs": [
        {
          "name": "allMeasurements",
          "type": "int256[]"
        },
        {
          "name": "_failedTimes",
          "type": "uint256[]"
        },
        {
          "name": "_failedTemps",
          "type": "int256[]"
        },
        {
          "name": "_totMeasured",
          "type": "uint256"
        }
      ],
      "name": "reportErrors",
      "outputs": [],
      "payable": false,
      "stateMutability": "nonpayable",
      "type": "function"
    },
    {
      "constant": false,
      "inputs": [],
      "name": "success",
      "outputs": [
        {
          "name": "",
          "type": "bool"
        }
      ],
      "payable": false,
      "stateMutability": "nonpayable",
      "type": "function"
    },
    {
      "constant": false,
      "inputs": [],
      "name": "getNumMeasured",
      "outputs": [
        {
          "name": "",
          "type": "uint256"
        }
      ],
      "payable": false,
      "stateMutability": "nonpayable",
      "type": "function"
    },
    {
      "constant": false,
      "inputs": [],
      "name": "getNumFailed",
      "outputs": [
        {
          "name": "",
          "type": "uint256"
        }
      ],
      "payable": false,
      "stateMutability": "nonpayable",
      "type": "function"
    },
    {
      "constant": false,
      "inputs": [
        {
          "name": "index",
          "type": "uint256"
        }
      ],
      "name": "getFailedTempAtIndex",
      "outputs": [
        {
          "name": "",
          "type": "int256"
        }
      ],
      "payable": false,
      "stateMutability": "nonpayable",
      "type": "function"
    },
    {
      "constant": false,
      "inputs": [
        {
          "name": "index",
          "type": "uint256"
        }
      ],
      "name": "getTimeOfFailAtIndex",
      "outputs": [
        {
          "name": "",
          "type": "uint256"
        }
      ],
      "payable": false,
      "stateMutability": "nonpayable",
      "type": "function"
    }
  ],
  "bytecode": "0x60806040526000600755600060085534801561001a57600080fd5b506040516107e63803806107e683398101806040528101908080519060200190929190805190602001909291908051820192919060200180519060200190929190505050336000806101000a81548173ffffffffffffffffffffffffffffffffffffffff021916908373ffffffffffffffffffffffffffffffffffffffff160217905550836003819055508260048190555081600190805190602001906100c292919061010d565b5080600260006101000a81548173ffffffffffffffffffffffffffffffffffffffff021916908373ffffffffffffffffffffffffffffffffffffffff160217905550505050506101b2565b828054600181600116156101000203166002900490600052602060002090601f016020900481019282601f1061014e57805160ff191683800117855561017c565b8280016001018555821561017c579182015b8281111561017b578251825591602001919060010190610160565b5b509050610189919061018d565b5090565b6101af91905b808211156101ab576000816000905550600101610193565b5090565b90565b610625806101c16000396000f30060806040526004361061008e576000357c0100000000000000000000000000000000000000000000000000000000900463ffffffff1680630b93381b14610093578063432ed085146100c257806361c31707146100ed57806376dd2a23146101185780637d0027ad146101595780638da5cb5b1461019a578063b92c96d2146101f1578063fe2c01051461029a575b600080fd5b34801561009f57600080fd5b506100a8610390565b604051808215151515815260200191505060405180910390f35b3480156100ce57600080fd5b506100d76103ad565b6040518082815260200191505060405180910390f35b3480156100f957600080fd5b506101026103b7565b6040518082815260200191505060405180910390f35b34801561012457600080fd5b50610143600480360381019080803590602001909291905050506103c1565b6040518082815260200191505060405180910390f35b34801561016557600080fd5b50610184600480360381019080803590602001909291905050506103e4565b6040518082815260200191505060405180910390f35b3480156101a657600080fd5b506101af610407565b604051808273ffffffffffffffffffffffffffffffffffffffff1673ffffffffffffffffffffffffffffffffffffffff16815260200191505060405180910390f35b3480156101fd57600080fd5b50610298600480360381019080803590602001908201803590602001908080602002602001604051908101604052809392919081815260200183836020028082843782019150505050505091929192908035906020019082018035906020019080806020026020016040519081016040528093929190818152602001838360200280828437820191505050505050919291929050505061042c565b005b3480156102a657600080fd5b5061038e600480360381019080803590602001908201803590602001908080602002602001604051908101604052809392919081815260200183836020028082843782019150505050505091929192908035906020019082018035906020019080806020026020016040519081016040528093929190818152602001838360200280828437820191505050505050919291929080359060200190820180359060200190808060200260200160405190810160405280939291908181526020018383602002808284378201915050505050509192919290803590602001909291905050506104c6565b005b6000806005805490501480156103a857506000600754145b905090565b6000600854905090565b6000600754905090565b60006006828154811015156103d257fe5b90600052602060002001549050919050565b60006005828154811015156103f557fe5b90600052602060002001549050919050565b6000809054906101000a900473ffffffffffffffffffffffffffffffffffffffff1681565b60008090505b82518110156104c157600354838281518110151561044c57fe5b90602001906020020151128061047a5750600454838281518110151561046e57fe5b90602001906020020151135b156104b457828181518110151561048d57fe5b9060200190602002015182828151811015156104a557fe5b90602001906020020181815250505b8080600101915050610432565b505050565b600080600260009054906101000a900473ffffffffffffffffffffffffffffffffffffffff1673ffffffffffffffffffffffffffffffffffffffff163373ffffffffffffffffffffffffffffffffffffffff1614151561052557600080fd5b61052f868561042c565b8351855114151561053f57600080fd5b84519150600090505b818110156105e3576005848281518110151561056057fe5b906020019060200201519080600181540180825580915050906001820390600052602060002001600090919290919091505550600685828151811015156105a357fe5b9060200190602002015190806001815401808255809150509060018203906000526020600020016000909192909190915055508080600101915050610548565b82600781905550816008819055505050505050505600a165627a7a7230582063c80561552f8a5fc3f2699927ca3f663fad2d21ab6abd9f11e9a0d583d8207c0029",
  "source": "pragma solidity ^0.4.4;\r\ncontract Ownable{\r\n  address public owner;\r\n\r\n  constructor() public {\r\n      owner=msg.sender;\r\n  }\r\n  modifier ownerOnly{\r\n      require(owner==msg.sender);\r\n      _;\r\n  }\r\n\r\n  function transferOwnership(address newOwner) internal ownerOnly{\r\n      require(newOwner!=address(0));\r\n      owner=newOwner;\r\n  }\r\n}\r\n\r\ncontract TradeRegulation is Ownable{\r\n    //trace\r\n    //The trace functionality is designed in the way that when a party produces a product\r\n    //it needs to upload the information regarding the product onto the blockchain. The proofstatus of\r\n    //that specific information will be set as pending right after the info is uploaded. By the time the receiver\r\n    //received the product, it can choose either to approve or reject it after careful examination. If it rejects it,\r\n    //further resolving actions will be executed.\r\n\r\n    struct Proof {//connect name to address\r\n        string location;\r\n        uint productID;\r\n        address owner;\r\n        proofStatus proof;\r\n        address nextOwner;\r\n        bytes photo;\r\n        mapping(address => bytes32) roleOfAddress;\r\n        characteristics productInfo;\r\n    //    Tx transaction;\r\n    }\r\n\r\n\r\n\r\n    //the content of characteristics is not comprehensive, but it will serve as a conceptual template\r\n    struct characteristics {\r\n\r\n                //enum damageOrNot;\r\n                //enum quality;\r\n                bytes productType;\r\n                uint temperature; //some product need transferring within certain temperature range\r\n\r\n\r\n    }\r\n\r\n\r\n    enum proofStatus {\r\n        approved,\r\n        pending,\r\n        rejected\r\n    }\r\n\r\n    enum proofRoles {\r\n        supplier,\r\n        distributor,\r\n        transport,\r\n        retailer,\r\n        consumer\r\n    }\r\n\r\n    mapping(uint=>Proof[]) trace;  //for a single product, there is only one supply chain\r\n    mapping(uint => Tx) pitx; // productID pointing to transaction\r\n\r\n    ///the functions of uploading info in the characterisitcs are not enough, but they will serve as a conceptual template\r\n    function updateProductType ( bytes productType, uint pI ){\r\n        if(isRightParties(pitx[pI].tradeID)){ // could be modified\r\n        Proof temp;\r\n        temp.productInfo.productType = productType;\r\n        }\r\n\r\n    }\r\n\r\n    //@param pI = productID\r\n    //@param address of the next Owner\r\n    //@param the location of the checkpoint\r\n    //initialize a supply chain (done by raw materials producers)\r\n\r\n    /*function initSC(uint pI, address next, string loca, bytes pho, bytes32 tradesID){\r\n\r\n        //suppliers will have special address?\r\n         Proof temp;\r\n         temp.location = loca;\r\n         temp.nextOwner = next;\r\n         temp.owner = msg.sender; //could be modified\r\n         temp.proof = proofStatus.pending;\r\n         temp.photo = pho;\r\n       //  temp.transaction = trades[tradesID];\r\n         pitx[pI] = trades[tradesID];\r\n         temp.roleOfAddress[msg.sender] = pitx[pI].tradePartiesRole[msg.sender];\r\n         trace[pI].push(temp);\r\n    }\r\n    */\r\n\r\n     function checkApproved (uint pI) returns (bool){\r\n            require(trace[pI].length != 0);\r\n                    if (trace[pI][trace[pI].length-1].proof == proofStatus.approved){\r\n                        return true;\r\n                    }\r\n                    return false;\r\n     }\r\n\r\n     function approve(uint pI, address next)\r\n        {\r\n            require(trace[pI].length != 0);\r\n            if (msg.sender == trace[pI][trace[pI].length-1].nextOwner && isRightParties(pitx[pI].tradeID)){\r\n                trace[pI][trace[pI].length-1].proof = proofStatus.approved ;\r\n            }\r\n\r\n        }\r\n\r\n     function reject (uint pI, address next)\r\n        {\r\n            require(trace[pI].length != 0);\r\n            if (msg.sender == trace[pI][trace[pI].length-1].nextOwner && isRightParties(pitx[pI].tradeID)){\r\n                trace[pI][trace[pI].length-1].proof = proofStatus.rejected ;\r\n            }\r\n        }\r\n\r\n    //@param pI = productID\r\n    //@param  status = whether you approve it or not\r\n    //approve that the status of the product is correct\r\n\r\n    //upload function can be modified according to real world situation; ex. if IoT can upload location by itself, there is no need to upload it manually.\r\n    //a separate function can be written\r\n\r\n    function uploadInfo (uint pI, proofStatus status, address next, string location, bytes photo, proofRoles partyRole)\r\n    {\r\n            if (checkApproved(pI) && isRightParties(pitx[pI].tradeID)){\r\n            Proof temp;\r\n            temp.location = location;\r\n            temp.nextOwner = next;\r\n            temp.owner = msg.sender;\r\n            temp.photo=photo;\r\n            temp.roleOfAddress[msg.sender] = pitx[pI].tradePartiesRole[msg.sender];//\r\n            trace[pI].push(temp);\r\n\r\n        }\r\n    }\r\n\r\n    function checkNodes (uint pI, uint stage) returns (string, address, proofStatus, address){\r\n        Proof storage temp = trace[pI][stage];\r\n        return(temp.location, temp.owner, temp.proof, temp.nextOwner );//could be changed\r\n    }\r\n\r\n    //trace\r\n  enum Status{\r\n      NOT_UPLOADED,\r\n      UNDER_REVIEW,\r\n      APPROVED,\r\n      REJECTED,\r\n      PARTIALLY_APPROVED\r\n  }\r\n  struct doc{\r\n      mapping(uint=>bytes) versionDir;\r\n      Status stat;\r\n      uint version;\r\n  }\r\n  struct LetterOfCredit{\r\n      uint numDays;\r\n      uint creditAmt;\r\n      Status stat;\r\n  }\r\n  /*\r\n  Struct that has characteristics of number of days before payment,\r\n  the owed money amount, and the status of the invoice.\r\n  */\r\n  struct Invoice{\r\n      uint numDays;\r\n      uint owedAmt;\r\n      Status stat;\r\n  }\r\n  /*\r\n  Struct with characteristics of a transaction between parties in supply chain.\r\n  */\r\n  struct Tx{\r\n       bytes32 tradeID;\r\n       address[] tradeParties;\r\n       mapping(address=>bytes32) tradePartiesRole;\r\n       mapping(bytes32=>doc) typeToDoc;\r\n       mapping(bytes32 => address) ethAddressByRole;\r\n       LetterOfCredit loc;\r\n       Invoice inv;\r\n       uint insuranceAmt;\r\n       uint shippingDate;\r\n       uint locIssueDate;\r\n       uint version;\r\n       uint objCount;\r\n\r\n   }\r\n   mapping(bytes32=>Tx) trades;\r\n   mapping(bytes32=>uint) amountCondition;\r\n\r\n\r\n\r\n   event TradeCreated(bytes32 id);\r\n   event DocumentUploaded(bytes32 id, bytes32 docType);\r\n   event SellerPayed(bytes32 id, bool success);\r\n   event InsurerPayed(bytes32 id);\r\n   event DepositMade(bytes32 id, uint amount);\r\n\r\n   function createTrade(bytes32 id, address[] tradeParties, bytes32[] tradePartiesRole, uint objCount, uint insuranceAmt) {\r\n    Tx storage myTrans;\r\n    trades[id]=myTrans;\r\n    trades[id].tradeParties = tradeParties;\r\n\r\n    for (uint i = 0; i < tradeParties.length; i++) {\r\n      trades[id].tradePartiesRole[tradeParties[i]] = tradePartiesRole[i];\r\n      trades[id].ethAddressByRole[tradePartiesRole[i]] = tradeParties[i];\r\n    }\r\n    trades[id].tradeID = id;\r\n    trades[id].objCount=objCount;\r\n    trades[id].insuranceAmt=insuranceAmt;\r\n    trades[id].version=0;\r\n    trades[id].tradeID=id;\r\n    TradeCreated(id);\r\n   }\r\n\r\n\r\n   function upload(bytes32 uid, address sender, bytes32 docType, bytes _hash) {\r\n    bytes32 role = trades[uid].tradePartiesRole[sender];\r\n    if (isUploadAllowed(role, docType)) {\r\n      uint currIndex = trades[uid].typeToDoc[docType].version++;\r\n      trades[uid].typeToDoc[docType].versionDir[currIndex] = _hash;\r\n      trades[uid].typeToDoc[docType].stat = Status.UNDER_REVIEW;\r\n      DocumentUploaded(uid,docType);\r\n    } else return;\r\n  }\r\n\r\n    function isRightParties (bytes32 id ) returns (bool){\r\n       for (uint i = 0; i < trades[id].tradeParties.length; i++){\r\n            if ( trades[id].tradeParties[i]  == msg.sender){\r\n                return true;\r\n            }\r\n       }\r\n       return false;\r\n    }\r\n\r\n  function isUploadAllowed(bytes32 role, bytes32 docType) internal returns(bool success) {\r\n     bool isAllowed = false;\r\n     if ((role == \"buyer\" && (docType == \"PurchaseOrder\")) ||\r\n       ((role == \"seller\") && (docType == \"Invoice\")) ||\r\n       (role == \"shipper\" && docType == \"BillOfLading\") || (role == \"insurer\" && docType == \"InuranceQuotation\")) {\r\n       isAllowed = true;\r\n     }\r\n     return isAllowed;\r\n   }\r\n\r\n\r\n   function payToSeller(bytes32 id) {\r\n   if(!isAmtMet) {\r\n    revert(\"Incorrect Amount Received!\");\r\n   }\r\n     if(now>trades[id].shippingDate+trades[id].loc.numDays && trades[id].shippingDate<(trades[id].locIssueDate+trades[id].loc.numDays) && isRightParties(id)) {\r\n       trades[id].ethAddressByRole[\"seller\"].transfer(trades[id].loc.creditAmt);\r\n       SellerPayed(id, true);\r\n     }\r\n     SellerPayed(id, false);\r\n   }\r\n\r\n\r\n   function payToInsurer(bytes32 id) {\r\n     trades[id].ethAddressByRole[\"insurer\"].transfer(trades[id].insuranceAmt);\r\n     InsurerPayed(id);\r\n   }\r\n\r\n   bool isAmtMet=false;\r\n\r\n   function isAmountMet(uint amountReceived, bytes32 id)  {\r\n    if(trades[id].objCount==amountReceived) {\r\n      isAmtMet=true;\r\n    }\r\n    isAmtMet=false;\r\n   }\r\n\r\n\r\n   function depositFunds(bytes32 id) payable{\r\n\r\n    DepositMade(id, msg.value);\r\n   }\r\n}\r\ncontract TemperatureRegulation is Ownable{\r\n  string location;\r\n  address temperatureWriter;\r\n  int minTemp;\r\n  int maxTemp;\r\n  int[] failedTemps;\r\n  uint[] failedTimes;\r\n  uint totMeasured=0;\r\n  uint totFails=0;\r\n  constructor(int _minTemp, int _maxTemp, string loc, address tempWriter) {\r\n    minTemp=_minTemp;\r\n    maxTemp=_maxTemp;\r\n    location=loc;\r\n    temperatureWriter=tempWriter;\r\n  }\r\n  modifier onlyTempWriter{\r\n    require(msg.sender==temperatureWriter);\r\n    _;\r\n  }\r\n  function fillFailArray(int[] allMeasurements, int[] emptyArr) {\r\n    for(uint i=0;i<allMeasurements.length;i++) {\r\n      if(allMeasurements[i]<minTemp||allMeasurements[i]>maxTemp) {\r\n        emptyArr[i]=(allMeasurements[i]);\r\n      }\r\n    }\r\n  }\r\n  //failedTemps parameter should be empty array, helper method will fill with failed temps.\r\n  function reportErrors(int[] allMeasurements, uint[] _failedTimes, int[] _failedTemps, uint _totMeasured) onlyTempWriter{\r\n    fillFailArray(allMeasurements, _failedTemps);\r\n    require(_failedTimes.length==_failedTemps.length);\r\n    //int currNumErr=failedTimes.length\r\n    uint numErr=_failedTimes.length;\r\n    for(uint i=0; i<numErr;i++) {\r\n      failedTemps.push(_failedTemps[i]);\r\n      failedTimes.push(_failedTimes[i]);\r\n    }\r\n    totMeasured=_totMeasured;\r\n    totFails=numErr;\r\n  }\r\n  function success() returns(bool) {\r\n    return failedTemps.length==0 && totMeasured==0;\r\n  }\r\n  function getNumMeasured() returns(uint) {\r\n    return totMeasured;\r\n  }\r\n  function getNumFailed() returns(uint) {\r\n    return totFails;\r\n  }\r\n  function getFailedTempAtIndex(uint index) returns (int){\r\n    return failedTemps[index];\r\n  }\r\n  function getTimeOfFailAtIndex(uint index) returns (uint){\r\n  return failedTimes[index];\r\n  }\r\n}\r\n",
  "sourcePath": "C:\\Users\\hlee9\\OneDrive\\Documents\\Github\\hello-world\\contracts\\mainContract.sol",
  "compiler": {
    "name": "solc",
    "version": "0.4.24+commit.e67f0147.Emscripten.clang"
  },
  "schemaVersion": "2.0.0",
  "updatedAt": "2018-07-05T08:43:04.531Z"
}