{
  "contractName": "TradeRegulation",
  "abi": [
    {
      "constant": true,
      "inputs": [],
      "name": "owner",
      "outputs": [
        {
          "name": "",
          "type": "address"
        }
      ],
      "payable": false,
      "stateMutability": "view",
      "type": "function"
    },
    {
      "anonymous": false,
      "inputs": [
        {
          "indexed": false,
          "name": "id",
          "type": "bytes32"
        }
      ],
      "name": "TradeCreated",
      "type": "event"
    },
    {
      "anonymous": false,
      "inputs": [
        {
          "indexed": false,
          "name": "id",
          "type": "bytes32"
        },
        {
          "indexed": false,
          "name": "docType",
          "type": "bytes32"
        }
      ],
      "name": "DocumentUploaded",
      "type": "event"
    },
    {
      "anonymous": false,
      "inputs": [
        {
          "indexed": false,
          "name": "id",
          "type": "bytes32"
        },
        {
          "indexed": false,
          "name": "success",
          "type": "bool"
        }
      ],
      "name": "SellerPayed",
      "type": "event"
    },
    {
      "anonymous": false,
      "inputs": [
        {
          "indexed": false,
          "name": "id",
          "type": "bytes32"
        }
      ],
      "name": "InsurerPayed",
      "type": "event"
    },
    {
      "anonymous": false,
      "inputs": [
        {
          "indexed": false,
          "name": "id",
          "type": "bytes32"
        },
        {
          "indexed": false,
          "name": "amount",
          "type": "uint256"
        }
      ],
      "name": "DepositMade",
      "type": "event"
    },
    {
      "constant": false,
      "inputs": [
        {
          "name": "productType",
          "type": "bytes"
        },
        {
          "name": "pI",
          "type": "uint256"
        }
      ],
      "name": "updateProductType",
      "outputs": [],
      "payable": false,
      "stateMutability": "nonpayable",
      "type": "function"
    },
    {
      "constant": false,
      "inputs": [
        {
          "name": "pI",
          "type": "uint256"
        }
      ],
      "name": "checkApproved",
      "outputs": [
        {
          "name": "",
          "type": "bool"
        }
      ],
      "payable": false,
      "stateMutability": "nonpayable",
      "type": "function"
    },
    {
      "constant": false,
      "inputs": [
        {
          "name": "pI",
          "type": "uint256"
        },
        {
          "name": "next",
          "type": "address"
        }
      ],
      "name": "approve",
      "outputs": [],
      "payable": false,
      "stateMutability": "nonpayable",
      "type": "function"
    },
    {
      "constant": false,
      "inputs": [
        {
          "name": "pI",
          "type": "uint256"
        },
        {
          "name": "next",
          "type": "address"
        }
      ],
      "name": "reject",
      "outputs": [],
      "payable": false,
      "stateMutability": "nonpayable",
      "type": "function"
    },
    {
      "constant": false,
      "inputs": [
        {
          "name": "pI",
          "type": "uint256"
        },
        {
          "name": "status",
          "type": "uint8"
        },
        {
          "name": "next",
          "type": "address"
        },
        {
          "name": "location",
          "type": "string"
        },
        {
          "name": "photo",
          "type": "bytes"
        },
        {
          "name": "partyRole",
          "type": "uint8"
        }
      ],
      "name": "uploadInfo",
      "outputs": [],
      "payable": false,
      "stateMutability": "nonpayable",
      "type": "function"
    },
    {
      "constant": false,
      "inputs": [
        {
          "name": "pI",
          "type": "uint256"
        },
        {
          "name": "stage",
          "type": "uint256"
        }
      ],
      "name": "checkNodes",
      "outputs": [
        {
          "name": "",
          "type": "string"
        },
        {
          "name": "",
          "type": "address"
        },
        {
          "name": "",
          "type": "uint8"
        },
        {
          "name": "",
          "type": "address"
        }
      ],
      "payable": false,
      "stateMutability": "nonpayable",
      "type": "function"
    },
    {
      "constant": false,
      "inputs": [
        {
          "name": "id",
          "type": "bytes32"
        },
        {
          "name": "tradeParties",
          "type": "address[]"
        },
        {
          "name": "tradePartiesRole",
          "type": "bytes32[]"
        },
        {
          "name": "objCount",
          "type": "uint256"
        },
        {
          "name": "insuranceAmt",
          "type": "uint256"
        }
      ],
      "name": "createTrade",
      "outputs": [],
      "payable": false,
      "stateMutability": "nonpayable",
      "type": "function"
    },
    {
      "constant": false,
      "inputs": [
        {
          "name": "uid",
          "type": "bytes32"
        },
        {
          "name": "sender",
          "type": "address"
        },
        {
          "name": "docType",
          "type": "bytes32"
        },
        {
          "name": "_hash",
          "type": "bytes"
        }
      ],
      "name": "upload",
      "outputs": [],
      "payable": false,
      "stateMutability": "nonpayable",
      "type": "function"
    },
    {
      "constant": false,
      "inputs": [
        {
          "name": "id",
          "type": "bytes32"
        }
      ],
      "name": "isRightParties",
      "outputs": [
        {
          "name": "",
          "type": "bool"
        }
      ],
      "payable": false,
      "stateMutability": "nonpayable",
      "type": "function"
    },
    {
      "constant": false,
      "inputs": [
        {
          "name": "id",
          "type": "bytes32"
        }
      ],
      "name": "payToSeller",
      "outputs": [],
      "payable": false,
      "stateMutability": "nonpayable",
      "type": "function"
    },
    {
      "constant": false,
      "inputs": [
        {
          "name": "id",
          "type": "bytes32"
        }
      ],
      "name": "payToInsurer",
      "outputs": [],
      "payable": false,
      "stateMutability": "nonpayable",
      "type": "function"
    },
    {
      "constant": false,
      "inputs": [
        {
          "name": "amountReceived",
          "type": "uint256"
        },
        {
          "name": "id",
          "type": "bytes32"
        }
      ],
      "name": "isAmountMet",
      "outputs": [
        {
          "name": "",
          "type": "bool"
        }
      ],
      "payable": false,
      "stateMutability": "nonpayable",
      "type": "function"
    },
    {
      "constant": false,
      "inputs": [
        {
          "name": "id",
          "type": "bytes32"
        }
      ],
      "name": "depositFunds",
      "outputs": [],
      "payable": true,
      "stateMutability": "payable",
      "type": "function"
    }
  ],
  "bytecode": "0x60806040526000600560006101000a81548160ff021916908315150217905550336000806101000a81548173ffffffffffffffffffffffffffffffffffffffff021916908373ffffffffffffffffffffffffffffffffffffffff160217905550611fac8061006e6000396000f3006080604052600436106100d0576000357c0100000000000000000000000000000000000000000000000000000000900463ffffffff16806303ab52fd146100d55780630b182190146101225780630ea8e809146101755780631502ff081461021a57806348476eb61461024b57806352cc8ca71461033e5780638a46f4af146104095780638da5cb5b14610534578063945ce82d1461058b578063a4b6d443146105af578063af3be4d8146105f8578063c197a9d11461063d578063ec6a170d146106b0578063febe4909146106e1575b600080fd5b3480156100e157600080fd5b5061012060048036038101908080359060200190929190803573ffffffffffffffffffffffffffffffffffffffff16906020019092919050505061072e565b005b34801561012e57600080fd5b5061015b600480360381019080803590602001909291908035600019169060200190929190505050610888565b604051808215151515815260200191505060405180910390f35b34801561018157600080fd5b506102186004803603810190808035600019169060200190929190803573ffffffffffffffffffffffffffffffffffffffff1690602001909291908035600019169060200190929190803590602001908201803590602001908080601f01602080910402602001604051908101604052809392919081815260200183838082843782019150505050505091929192905050506108fa565b005b34801561022657600080fd5b506102496004803603810190808035600019169060200190929190505050610ad3565b005b34801561025757600080fd5b5061033c60048036038101908080359060200190929190803560ff169060200190929190803573ffffffffffffffffffffffffffffffffffffffff169060200190929190803590602001908201803590602001908080601f0160208091040260200160405190810160405280939291908181526020018383808284378201915050505050509192919290803590602001908201803590602001908080601f0160208091040260200160405190810160405280939291908181526020018383808284378201915050505050509192919290803560ff169060200190929190505050610bed565b005b34801561034a57600080fd5b50610407600480360381019080803560001916906020019092919080359060200190820180359060200190808060200260200160405190810160405280939291908181526020018383602002808284378201915050505050509192919290803590602001908201803590602001908080602002602001604051908101604052809392919081815260200183836020028082843782019150505050505091929192908035906020019092919080359060200190929190505050610f5f565b005b34801561041557600080fd5b5061043e6004803603810190808035906020019092919080359060200190929190505050611306565b60405180806020018573ffffffffffffffffffffffffffffffffffffffff1673ffffffffffffffffffffffffffffffffffffffff16815260200184600281111561048457fe5b60ff1681526020018373ffffffffffffffffffffffffffffffffffffffff1673ffffffffffffffffffffffffffffffffffffffff168152602001828103825286818151815260200191508051906020019080838360005b838110156104f65780820151818401526020810190506104db565b50505050905090810190601f1680156105235780820380516001836020036101000a031916815260200191505b509550505050505060405180910390f35b34801561054057600080fd5b5061054961144c565b604051808273ffffffffffffffffffffffffffffffffffffffff1673ffffffffffffffffffffffffffffffffffffffff16815260200191505060405180910390f35b6105ad6004803603810190808035600019169060200190929190505050611471565b005b3480156105bb57600080fd5b506105de60048036038101908080356000191690602001909291905050506114bb565b604051808215151515815260200191505060405180910390f35b34801561060457600080fd5b5061062360048036038101908080359060200190929190505050611596565b604051808215151515815260200191505060405180910390f35b34801561064957600080fd5b506106ae600480360381019080803590602001908201803590602001908080601f016020809104026020016040519081016040528093929190818152602001838380828437820191505050505050919291929080359060200190929190505050611645565b005b3480156106bc57600080fd5b506106df600480360381019080803560001916906020019092919050505061168d565b005b3480156106ed57600080fd5b5061072c60048036038101908080359060200190929190803573ffffffffffffffffffffffffffffffffffffffff16906020019092919050505061194c565b005b600060016000848152602001908152602001600020805490501415151561075457600080fd5b600160008381526020019081526020016000206001806000858152602001908152602001600020805490500381548110151561078c57fe5b906000526020600020906008020160030160009054906101000a900473ffffffffffffffffffffffffffffffffffffffff1673ffffffffffffffffffffffffffffffffffffffff163373ffffffffffffffffffffffffffffffffffffffff16148015610813575061081260026000848152602001908152602001600020600001546114bb565b5b15610884576002600160008481526020019081526020016000206001806000868152602001908152602001600020805490500381548110151561085257fe5b906000526020600020906008020160020160146101000a81548160ff0219169083600281111561087e57fe5b02179055505b5050565b600082600360008460001916600019168152602001908152602001600020600f015414156108d4576001600560006101000a81548160ff021916908315150217905550600190506108f4565b6000600560006101000a81548160ff021916908315150217905550600090505b92915050565b60008060036000876000191660001916815260200190815260200160002060020160008673ffffffffffffffffffffffffffffffffffffffff1673ffffffffffffffffffffffffffffffffffffffff1681526020019081526020016000205491506109658285611aa6565b15610ac557600360008760001916600019168152602001908152602001600020600301600085600019166000191681526020019081526020016000206002016000815480929190600101919050559050826003600088600019166000191681526020019081526020016000206003016000866000191660001916815260200190815260200160002060000160008381526020019081526020016000209080519060200190610a14929190611c2e565b5060016003600088600019166000191681526020019081526020016000206003016000866000191660001916815260200190815260200160002060010160006101000a81548160ff02191690836004811115610a6c57fe5b02179055507faf5ab1697ee2aab04faf1fd35b77b1d2a8285e78af221c858622acd5a5213266868560405180836000191660001916815260200182600019166000191681526020019250505060405180910390a1610aca565b610acb565b5b505050505050565b60036000826000191660001916815260200190815260200160002060040160007f696e73757265720000000000000000000000000000000000000000000000000060001916815260200190815260200160002060009054906101000a900473ffffffffffffffffffffffffffffffffffffffff1673ffffffffffffffffffffffffffffffffffffffff166108fc600360008460001916600019168152602001908152602001600020600b01549081150290604051600060405180830381858888f19350505050158015610baa573d6000803e3d6000fd5b507fa2d501e5669efc556bcba8ba24946df7c6b3802db66c179e1625f44df9fa95b48160405180826000191660001916815260200191505060405180910390a150565b6000610bf887611596565b8015610c1f5750610c1e60026000898152602001908152602001600020600001546114bb565b5b15610f565783816000019080519060200190610c3c929190611cae565b50848160030160006101000a81548173ffffffffffffffffffffffffffffffffffffffff021916908373ffffffffffffffffffffffffffffffffffffffff160217905550338160020160006101000a81548173ffffffffffffffffffffffffffffffffffffffff021916908373ffffffffffffffffffffffffffffffffffffffff16021790555082816004019080519060200190610cdb929190611c2e565b506002600088815260200190815260200160002060020160003373ffffffffffffffffffffffffffffffffffffffff1673ffffffffffffffffffffffffffffffffffffffff168152602001908152602001600020548160050160003373ffffffffffffffffffffffffffffffffffffffff1673ffffffffffffffffffffffffffffffffffffffff168152602001908152602001600020816000191690555060016000888152602001908152602001600020819080600181540180825580915050906001820390600052602060002090600802016000909192909190915060008201816000019080546001816001161561010002031660029004610ddf929190611d2e565b50600182015481600101556002820160009054906101000a900473ffffffffffffffffffffffffffffffffffffffff168160020160006101000a81548173ffffffffffffffffffffffffffffffffffffffff021916908373ffffffffffffffffffffffffffffffffffffffff1602179055506002820160149054906101000a900460ff168160020160146101000a81548160ff02191690836002811115610e8257fe5b02179055506003820160009054906101000a900473ffffffffffffffffffffffffffffffffffffffff168160030160006101000a81548173ffffffffffffffffffffffffffffffffffffffff021916908373ffffffffffffffffffffffffffffffffffffffff16021790555060048201816004019080546001816001161561010002031660029004610f15929190611db5565b50600682018160060160008201816000019080546001816001161561010002031660029004610f45929190611db5565b506001820154816001015550505050505b50505050505050565b60008081600360008960001916600019168152602001908152602001600020600082015481600001906000191690556001820181600101908054610fa4929190611e3c565b50600582018160050160008201548160000155600182015481600101556002820160009054906101000a900460ff168160020160006101000a81548160ff02191690836004811115610ff257fe5b02179055505050600882018160080160008201548160000155600182015481600101556002820160009054906101000a900460ff168160020160006101000a81548160ff0219169083600481111561104657fe5b02179055505050600b82015481600b0155600c82015481600c0155600d82015481600d0155600e82015481600e0155600f82015481600f01559050508560036000896000191660001916815260200190815260200160002060010190805190602001906110b4929190611e8e565b50600090505b85518110156112065784818151811015156110d157fe5b906020019060200201516003600089600019166000191681526020019081526020016000206002016000888481518110151561110957fe5b9060200190602002015173ffffffffffffffffffffffffffffffffffffffff1673ffffffffffffffffffffffffffffffffffffffff1681526020019081526020016000208160001916905550858181518110151561116357fe5b906020019060200201516003600089600019166000191681526020019081526020016000206004016000878481518110151561119b57fe5b906020019060200201516000191660001916815260200190815260200160002060006101000a81548173ffffffffffffffffffffffffffffffffffffffff021916908373ffffffffffffffffffffffffffffffffffffffff16021790555080806001019150506110ba565b86600360008960001916600019168152602001908152602001600020600001816000191690555083600360008960001916600019168152602001908152602001600020600f018190555082600360008960001916600019168152602001908152602001600020600b01819055506000600360008960001916600019168152602001908152602001600020600e01819055508660036000896000191660001916815260200190815260200160002060000181600019169055507f72dbb4020c53749dc8545b23b311eeb1dff0b7c1104f9c22edf39a3c696ad8388760405180826000191660001916815260200191505060405180910390a150505050505050565b6060600080600080600160008881526020019081526020016000208681548110151561132e57fe5b90600052602060002090600802019050806000018160020160009054906101000a900473ffffffffffffffffffffffffffffffffffffffff168260020160149054906101000a900460ff168360030160009054906101000a900473ffffffffffffffffffffffffffffffffffffffff16838054600181600116156101000203166002900480601f0160208091040260200160405190810160405280929190818152602001828054600181600116156101000203166002900480156114335780601f1061140857610100808354040283529160200191611433565b820191906000526020600020905b81548152906001019060200180831161141657829003601f168201915b5050505050935094509450945094505092959194509250565b6000809054906101000a900473ffffffffffffffffffffffffffffffffffffffff1681565b7f83b13d06086ba418bcd1e24e34adcb327aff5a1221770e0f9858190de5288ea281346040518083600019166000191681526020018281526020019250505060405180910390a150565b600080600090505b6003600084600019166000191681526020019081526020016000206001018054905081101561158b573373ffffffffffffffffffffffffffffffffffffffff166003600085600019166000191681526020019081526020016000206001018281548110151561152e57fe5b9060005260206000200160009054906101000a900473ffffffffffffffffffffffffffffffffffffffff1673ffffffffffffffffffffffffffffffffffffffff16141561157e5760019150611590565b80806001019150506114c3565b600091505b50919050565b6000806001600084815260200190815260200160002080549050141515156115bd57600080fd5b600060028111156115ca57fe5b600160008481526020019081526020016000206001806000868152602001908152602001600020805490500381548110151561160257fe5b906000526020600020906008020160020160149054906101000a900460ff16600281111561162c57fe5b141561163b5760019050611640565b600090505b919050565b600061166660026000848152602001908152602001600020600001546114bb565b156116885782816006016000019080519060200190611686929190611c2e565b505b505050565b600560009054906101000a900460ff161515611711576040517f08c379a000000000000000000000000000000000000000000000000000000000815260040180806020018281038252601a8152602001807f496e636f727265637420416d6f756e742052656365697665642100000000000081525060200191505060405180910390fd5b60036000826000191660001916815260200190815260200160002060050160000154600360008360001916600019168152602001908152602001600020600c015401421180156117bf575060036000826000191660001916815260200190815260200160002060050160000154600360008360001916600019168152602001908152602001600020600d015401600360008360001916600019168152602001908152602001600020600c0154105b80156117d057506117cf816114bb565b5b156118fd5760036000826000191660001916815260200190815260200160002060040160007f73656c6c6572000000000000000000000000000000000000000000000000000060001916815260200190815260200160002060009054906101000a900473ffffffffffffffffffffffffffffffffffffffff1673ffffffffffffffffffffffffffffffffffffffff166108fc600360008460001916600019168152602001908152602001600020600501600101549081150290604051600060405180830381858888f193505050501580156118af573d6000803e3d6000fd5b507f8be31eb62ffa82ee24c9cf44fde01133c028125014e5978a52e7bc06a8c72f0a816001604051808360001916600019168152602001821515151581526020019250505060405180910390a15b7f8be31eb62ffa82ee24c9cf44fde01133c028125014e5978a52e7bc06a8c72f0a816000604051808360001916600019168152602001821515151581526020019250505060405180910390a150565b600060016000848152602001908152602001600020805490501415151561197257600080fd5b60016000838152602001908152602001600020600180600085815260200190815260200160002080549050038154811015156119aa57fe5b906000526020600020906008020160030160009054906101000a900473ffffffffffffffffffffffffffffffffffffffff1673ffffffffffffffffffffffffffffffffffffffff163373ffffffffffffffffffffffffffffffffffffffff16148015611a315750611a3060026000848152602001908152602001600020600001546114bb565b5b15611aa25760006001600084815260200190815260200160002060018060008681526020019081526020016000208054905003815481101515611a7057fe5b906000526020600020906008020160020160146101000a81548160ff02191690836002811115611a9c57fe5b02179055505b5050565b600080600090507f62757965720000000000000000000000000000000000000000000000000000008460001916148015611b0357507f50757263686173654f72646572000000000000000000000000000000000000008360001916145b80611b6057507f73656c6c657200000000000000000000000000000000000000000000000000008460001916148015611b5f57507f496e766f696365000000000000000000000000000000000000000000000000008360001916145b5b80611bbd57507f73686970706572000000000000000000000000000000000000000000000000008460001916148015611bbc57507f42696c6c4f664c6164696e6700000000000000000000000000000000000000008360001916145b5b80611c1a57507f696e7375726572000000000000000000000000000000000000000000000000008460001916148015611c1957507f496e7572616e636551756f746174696f6e0000000000000000000000000000008360001916145b5b15611c2457600190505b8091505092915050565b828054600181600116156101000203166002900490600052602060002090601f016020900481019282601f10611c6f57805160ff1916838001178555611c9d565b82800160010185558215611c9d579182015b82811115611c9c578251825591602001919060010190611c81565b5b509050611caa9190611f18565b5090565b828054600181600116156101000203166002900490600052602060002090601f016020900481019282601f10611cef57805160ff1916838001178555611d1d565b82800160010185558215611d1d579182015b82811115611d1c578251825591602001919060010190611d01565b5b509050611d2a9190611f18565b5090565b828054600181600116156101000203166002900490600052602060002090601f016020900481019282601f10611d675780548555611da4565b82800160010185558215611da457600052602060002091601f016020900482015b82811115611da3578254825591600101919060010190611d88565b5b509050611db19190611f18565b5090565b828054600181600116156101000203166002900490600052602060002090601f016020900481019282601f10611dee5780548555611e2b565b82800160010185558215611e2b57600052602060002091601f016020900482015b82811115611e2a578254825591600101919060010190611e0f565b5b509050611e389190611f18565b5090565b828054828255906000526020600020908101928215611e7d5760005260206000209182015b82811115611e7c578254825591600101919060010190611e61565b5b509050611e8a9190611f3d565b5090565b828054828255906000526020600020908101928215611f07579160200282015b82811115611f065782518260006101000a81548173ffffffffffffffffffffffffffffffffffffffff021916908373ffffffffffffffffffffffffffffffffffffffff16021790555091602001919060010190611eae565b5b509050611f149190611f3d565b5090565b611f3a91905b80821115611f36576000816000905550600101611f1e565b5090565b90565b611f7d91905b80821115611f7957600081816101000a81549073ffffffffffffffffffffffffffffffffffffffff021916905550600101611f43565b5090565b905600a165627a7a723058205debac7d5c1f3712aec790011dfc097ea61d6826434f76b573f5de3719e058860029",
  "source": "pragma solidity ^0.4.4;\ncontract Ownable{\n  address public owner;\n  constructor() public {\n      owner=msg.sender;\n  }\n  modifier ownerOnly{\n      require(owner==msg.sender);\n      _;\n  }\n  function transferOwnership(address newOwner) internal ownerOnly{\n      require(newOwner!=address(0));\n      owner=newOwner;\n  }\n}\n\ncontract TradeRegulation is Ownable{\n    //trace\n    //The trace functionality is designed in the way that when a party produces a product\n    //it needs to upload the information regarding the product onto the blockchain. The proofstatus of\n    //that specific information will be set as pending right after the info is uploaded. By the time the receiver\n    //received the product, it can choose either to approve or reject it after careful examination. If it rejects it,\n    //further resolving actions will be executed.\n\n    struct Proof {//connect name to address\n        string location;\n        uint productID;\n        address owner;\n        proofStatus proof;\n        address nextOwner;\n        bytes photo;\n        mapping(address => bytes32) roleOfAddress;\n        characteristics productInfo;\n    //    Tx transaction;\n    }\n\n\n\n    //the content of characteristics is not comprehensive, but it will serve as a conceptual template\n    struct characteristics {\n\n                //enum damageOrNot;\n                //enum quality;\n                bytes productType;\n                uint temperature; //some product need transferring within certain temperature range\n\n\n    }\n\n\n    enum proofStatus {\n        approved,\n        pending,\n        rejected\n    }\n\n    enum proofRoles {\n        supplier,\n        distributor,\n        transport,\n        retailer,\n        consumer\n    }\n\n    mapping(uint=>Proof[]) trace;  //for a single product, there is only one supply chain\n    mapping(uint => Tx) pitx; // productID pointing to transaction\n\n    ///the functions of uploading info in the characterisitcs are not enough, but they will serve as a conceptual template\n    function updateProductType ( bytes productType, uint pI ){\n        if(isRightParties(pitx[pI].tradeID)){ // could be modified\n        Proof temp;\n        temp.productInfo.productType = productType;\n        }\n\n    }\n\n    //@param pI = productID\n    //@param address of the next Owner\n    //@param the location of the checkpoint\n    //initialize a supply chain (done by raw materials producers)\n\n    /*function initSC(uint pI, address next, string loca, bytes pho, bytes32 tradesID){\n\n        //suppliers will have special address?\n         Proof temp;\n         temp.location = loca;\n         temp.nextOwner = next;\n         temp.owner = msg.sender; //could be modified\n         temp.proof = proofStatus.pending;\n         temp.photo = pho;\n       //  temp.transaction = trades[tradesID];\n         pitx[pI] = trades[tradesID];\n         temp.roleOfAddress[msg.sender] = pitx[pI].tradePartiesRole[msg.sender];\n         trace[pI].push(temp);\n    }\n    */\n\n     function checkApproved (uint pI) returns (bool){\n            require(trace[pI].length != 0);\n                    if (trace[pI][trace[pI].length-1].proof == proofStatus.approved){\n                        return true;\n                    }\n                    return false;\n     }\n\n     function approve(uint pI, address next)\n        {\n            require(trace[pI].length != 0);\n            if (msg.sender == trace[pI][trace[pI].length-1].nextOwner && isRightParties(pitx[pI].tradeID)){\n                trace[pI][trace[pI].length-1].proof = proofStatus.approved ;\n            }\n\n        }\n\n     function reject (uint pI, address next)\n        {\n            require(trace[pI].length != 0);\n            if (msg.sender == trace[pI][trace[pI].length-1].nextOwner && isRightParties(pitx[pI].tradeID)){\n                trace[pI][trace[pI].length-1].proof = proofStatus.rejected ;\n            }\n        }\n\n    //@param pI = productID\n    //@param  status = whether you approve it or not\n    //approve that the status of the product is correct\n\n    //upload function can be modified according to real world situation; ex. if IoT can upload location by itself, there is no need to upload it manually.\n    //a separate function can be written\n\n    function uploadInfo (uint pI, proofStatus status, address next, string location, bytes photo, proofRoles partyRole)\n    {\n            if (checkApproved(pI) && isRightParties(pitx[pI].tradeID)){\n            Proof temp;\n            temp.location = location;\n            temp.nextOwner = next;\n            temp.owner = msg.sender;\n            temp.photo=photo;\n            temp.roleOfAddress[msg.sender] = pitx[pI].tradePartiesRole[msg.sender];//\n            trace[pI].push(temp);\n\n        }\n    }\n\n    function checkNodes (uint pI, uint stage) returns (string, address, proofStatus, address){\n        Proof storage temp = trace[pI][stage];\n        return(temp.location, temp.owner, temp.proof, temp.nextOwner );//could be changed\n    }\n\n    //trace\n  enum Status{\n      NOT_UPLOADED,\n      UNDER_REVIEW,\n      APPROVED,\n      REJECTED,\n      PARTIALLY_APPROVED\n  }\n  struct doc{\n      mapping(uint=>bytes) versionDir;\n      Status stat;\n      uint version;\n  }\n  struct LetterOfCredit{\n      uint numDays;\n      uint creditAmt;\n      Status stat;\n  }\n  /*\n  Struct that has characteristics of number of days before payment,\n  the owed money amount, and the status of the invoice.\n  */\n  struct Invoice{\n      uint numDays;\n      uint owedAmt;\n      Status stat;\n  }\n  /*\n  Struct with characteristics of a transaction between parties in supply chain.\n  */\n  struct Tx{\n       bytes32 tradeID;\n       address[] tradeParties;\n       mapping(address=>bytes32) tradePartiesRole;\n       mapping(bytes32=>doc) typeToDoc;\n       mapping(bytes32 => address) ethAddressByRole;\n       LetterOfCredit loc;\n       Invoice inv;\n       uint insuranceAmt;\n       uint shippingDate;\n       uint locIssueDate;\n       uint version;\n       uint objCount;\n\n   }\n   mapping(bytes32=>Tx) trades;\n   mapping(bytes32=>uint) amountCondition;\n\n\n\n   event TradeCreated(bytes32 id);\n   event DocumentUploaded(bytes32 id, bytes32 docType);\n   event SellerPayed(bytes32 id, bool success);\n   event InsurerPayed(bytes32 id);\n   event DepositMade(bytes32 id, uint amount);\n\n   function createTrade(bytes32 id, address[] tradeParties, bytes32[] tradePartiesRole, uint objCount, uint insuranceAmt) {\n    Tx storage myTrans;\n    trades[id]=myTrans;\n    trades[id].tradeParties = tradeParties;\n\n    for (uint i = 0; i < tradeParties.length; i++) {\n      trades[id].tradePartiesRole[tradeParties[i]] = tradePartiesRole[i];\n      trades[id].ethAddressByRole[tradePartiesRole[i]] = tradeParties[i];\n    }\n    trades[id].tradeID = id;\n    trades[id].objCount=objCount;\n    trades[id].insuranceAmt=insuranceAmt;\n    trades[id].version=0;\n    trades[id].tradeID=id;\n    TradeCreated(id);\n   }\n\n\n   function upload(bytes32 uid, address sender, bytes32 docType, bytes _hash) {\n    bytes32 role = trades[uid].tradePartiesRole[sender];\n    if (isUploadAllowed(role, docType)) {\n      uint currIndex = trades[uid].typeToDoc[docType].version++;\n      trades[uid].typeToDoc[docType].versionDir[currIndex] = _hash;\n      trades[uid].typeToDoc[docType].stat = Status.UNDER_REVIEW;\n      DocumentUploaded(uid,docType);\n    } else return;\n  }\n\n    function isRightParties (bytes32 id ) returns (bool){\n       for (uint i = 0; i < trades[id].tradeParties.length; i++){\n            if ( trades[id].tradeParties[i]  == msg.sender){\n                return true;\n            }\n       }\n       return false;\n    }\n\n  function isUploadAllowed(bytes32 role, bytes32 docType) internal returns(bool success) {\n     bool isAllowed = false;\n     if ((role == \"buyer\" && (docType == \"PurchaseOrder\")) ||\n       ((role == \"seller\") && (docType == \"Invoice\")) ||\n       (role == \"shipper\" && docType == \"BillOfLading\") || (role == \"insurer\" && docType == \"InuranceQuotation\")) {\n       isAllowed = true;\n     }\n     return isAllowed;\n   }\n\n\n   function payToSeller(bytes32 id) {\n   if(!isAmtMet) {\n    revert(\"Incorrect Amount Received!\");\n   }\n     if(now>trades[id].shippingDate+trades[id].loc.numDays && trades[id].shippingDate<(trades[id].locIssueDate+trades[id].loc.numDays) && isRightParties(id)) {\n       trades[id].ethAddressByRole[\"seller\"].transfer(trades[id].loc.creditAmt);\n       SellerPayed(id, true);\n     }\n     SellerPayed(id, false);\n   }\n\n\n   function payToInsurer(bytes32 id) {\n     trades[id].ethAddressByRole[\"insurer\"].transfer(trades[id].insuranceAmt);\n     InsurerPayed(id);\n   }\n\n   bool isAmtMet=false;\n\n   function isAmountMet(uint amountReceived, bytes32 id) returns (bool) {\n    if(trades[id].objCount==amountReceived) {\n      isAmtMet=true;\n      return true;\n    }\n    isAmtMet=false;\n    return false;\n   }\n\n\n   function depositFunds(bytes32 id) payable{\n\n    DepositMade(id, msg.value);\n   }\n}\n",
  "sourcePath": "/Users/chensun/Documents/GitHub/hello-world/contracts/mainContract.sol",
  "compiler": {
    "name": "solc",
    "version": "0.4.24+commit.e67f0147.Emscripten.clang"
  },
  "schemaVersion": "2.0.0",
  "updatedAt": "2018-07-04T13:49:19.036Z"
}