{
  "contractName": "TradeRegulation",
  "abi": [
    {
      "constant": true,
      "inputs": [],
      "name": "owner",
      "outputs": [
        {
          "name": "",
          "type": "address"
        }
      ],
      "payable": false,
      "stateMutability": "view",
      "type": "function"
    },
    {
      "anonymous": false,
      "inputs": [
        {
          "indexed": false,
          "name": "id",
          "type": "bytes32"
        }
      ],
      "name": "TradeCreated",
      "type": "event"
    },
    {
      "anonymous": false,
      "inputs": [
        {
          "indexed": false,
          "name": "id",
          "type": "bytes32"
        },
        {
          "indexed": false,
          "name": "docType",
          "type": "bytes32"
        }
      ],
      "name": "DocumentUploaded",
      "type": "event"
    },
    {
      "anonymous": false,
      "inputs": [
        {
          "indexed": false,
          "name": "id",
          "type": "bytes32"
        },
        {
          "indexed": false,
          "name": "success",
          "type": "bool"
        }
      ],
      "name": "SellerPayed",
      "type": "event"
    },
    {
      "anonymous": false,
      "inputs": [
        {
          "indexed": false,
          "name": "id",
          "type": "bytes32"
        }
      ],
      "name": "InsurerPayed",
      "type": "event"
    },
    {
      "anonymous": false,
      "inputs": [
        {
          "indexed": false,
          "name": "id",
          "type": "bytes32"
        },
        {
          "indexed": false,
          "name": "amount",
          "type": "uint256"
        }
      ],
      "name": "DepositMade",
      "type": "event"
    },
    {
      "constant": false,
      "inputs": [
        {
          "name": "productType",
          "type": "bytes"
        },
        {
          "name": "pI",
          "type": "uint256"
        }
      ],
      "name": "updateProductType",
      "outputs": [],
      "payable": false,
      "stateMutability": "nonpayable",
      "type": "function"
    },
    {
      "constant": false,
      "inputs": [
        {
          "name": "pI",
          "type": "uint256"
        },
        {
          "name": "next",
          "type": "address"
        },
        {
          "name": "loca",
          "type": "string"
        },
        {
          "name": "pho",
          "type": "bytes"
        },
        {
          "name": "tradesID",
          "type": "bytes32"
        }
      ],
      "name": "initSC",
      "outputs": [],
      "payable": false,
      "stateMutability": "nonpayable",
      "type": "function"
    },
    {
      "constant": false,
      "inputs": [
        {
          "name": "pI",
          "type": "uint256"
        }
      ],
      "name": "checkApproved",
      "outputs": [
        {
          "name": "",
          "type": "bool"
        }
      ],
      "payable": false,
      "stateMutability": "nonpayable",
      "type": "function"
    },
    {
      "constant": false,
      "inputs": [
        {
          "name": "pI",
          "type": "uint256"
        }
      ],
      "name": "approve",
      "outputs": [
        {
          "name": "",
          "type": "bool"
        }
      ],
      "payable": false,
      "stateMutability": "nonpayable",
      "type": "function"
    },
    {
      "constant": false,
      "inputs": [
        {
          "name": "pI",
          "type": "uint256"
        }
      ],
      "name": "reject",
      "outputs": [],
      "payable": false,
      "stateMutability": "nonpayable",
      "type": "function"
    },
    {
      "constant": false,
      "inputs": [
        {
          "name": "pI",
          "type": "uint256"
        },
        {
          "name": "status",
          "type": "uint8"
        },
        {
          "name": "next",
          "type": "address"
        },
        {
          "name": "location",
          "type": "string"
        },
        {
          "name": "photo",
          "type": "bytes"
        },
        {
          "name": "partyRole",
          "type": "uint8"
        }
      ],
      "name": "uploadInfo",
      "outputs": [],
      "payable": false,
      "stateMutability": "nonpayable",
      "type": "function"
    },
    {
      "constant": false,
      "inputs": [
        {
          "name": "pI",
          "type": "uint256"
        },
        {
          "name": "stage",
          "type": "uint256"
        }
      ],
      "name": "checkNodes",
      "outputs": [
        {
          "name": "",
          "type": "string"
        },
        {
          "name": "",
          "type": "address"
        },
        {
          "name": "",
          "type": "string"
        },
        {
          "name": "",
          "type": "address"
        }
      ],
      "payable": false,
      "stateMutability": "nonpayable",
      "type": "function"
    },
    {
      "constant": false,
      "inputs": [
        {
          "name": "id",
          "type": "bytes32"
        },
        {
          "name": "tradeParties",
          "type": "address[]"
        },
        {
          "name": "tradePartiesRole",
          "type": "bytes32[]"
        },
        {
          "name": "objCount",
          "type": "uint256"
        },
        {
          "name": "insuranceAmt",
          "type": "uint256"
        }
      ],
      "name": "createTrade",
      "outputs": [],
      "payable": false,
      "stateMutability": "nonpayable",
      "type": "function"
    },
    {
      "constant": false,
      "inputs": [
        {
          "name": "uid",
          "type": "bytes32"
        },
        {
          "name": "sender",
          "type": "address"
        },
        {
          "name": "docType",
          "type": "bytes32"
        },
        {
          "name": "_hash",
          "type": "bytes"
        }
      ],
      "name": "upload",
      "outputs": [
        {
          "name": "",
          "type": "bool"
        }
      ],
      "payable": false,
      "stateMutability": "nonpayable",
      "type": "function"
    },
    {
      "constant": false,
      "inputs": [
        {
          "name": "id",
          "type": "bytes32"
        }
      ],
      "name": "isRightParties",
      "outputs": [
        {
          "name": "",
          "type": "bool"
        }
      ],
      "payable": false,
      "stateMutability": "nonpayable",
      "type": "function"
    },
    {
      "constant": false,
      "inputs": [
        {
          "name": "id",
          "type": "bytes32"
        }
      ],
      "name": "payToSeller",
      "outputs": [],
      "payable": false,
      "stateMutability": "nonpayable",
      "type": "function"
    },
    {
      "constant": false,
      "inputs": [
        {
          "name": "id",
          "type": "bytes32"
        }
      ],
      "name": "payToInsurer",
      "outputs": [],
      "payable": false,
      "stateMutability": "nonpayable",
      "type": "function"
    },
    {
      "constant": false,
      "inputs": [
        {
          "name": "amountReceived",
          "type": "uint256"
        },
        {
          "name": "id",
          "type": "bytes32"
        }
      ],
      "name": "isAmountMet",
      "outputs": [],
      "payable": false,
      "stateMutability": "nonpayable",
      "type": "function"
    },
    {
      "constant": false,
      "inputs": [
        {
          "name": "id",
          "type": "bytes32"
        }
      ],
      "name": "depositFunds",
      "outputs": [],
      "payable": true,
      "stateMutability": "payable",
      "type": "function"
    },
    {
      "constant": false,
      "inputs": [
        {
          "name": "id",
          "type": "bytes32"
        },
        {
          "name": "myAdd",
          "type": "address"
        }
      ],
      "name": "getBalance",
      "outputs": [
        {
          "name": "",
          "type": "uint256"
        }
      ],
      "payable": false,
      "stateMutability": "nonpayable",
      "type": "function"
    }
  ],
  "bytecode": "0x60806040526000600560006101000a81548160ff021916908315150217905550336000806101000a81548173ffffffffffffffffffffffffffffffffffffffff021916908373ffffffffffffffffffffffffffffffffffffffff160217905550612cea8061006e6000396000f3006080604052600436106100e6576000357c0100000000000000000000000000000000000000000000000000000000900463ffffffff1680630b182190146100eb5780630ea8e809146101265780631502ff08146101e357806348476eb61461021457806352cc8ca714610307578063530e931c146103d257806369485ee4146104375780638a46f4af1461051e5780638da5cb5b146106a0578063945ce82d146106f7578063a4b6d4431461071b578063af3be4d814610764578063b759f954146107a9578063b8adaa11146107ee578063c197a9d11461081b578063ec6a170d1461088e575b600080fd5b3480156100f757600080fd5b506101246004803603810190808035906020019092919080356000191690602001909291905050506108bf565b005b34801561013257600080fd5b506101c96004803603810190808035600019169060200190929190803573ffffffffffffffffffffffffffffffffffffffff1690602001909291908035600019169060200190929190803590602001908201803590602001908080601f0160208091040260200160405190810160405280939291908181526020018383808284378201915050505050509192919290505050610920565b604051808215151515815260200191505060405180910390f35b3480156101ef57600080fd5b506102126004803603810190808035600019169060200190929190505050610ab1565b005b34801561022057600080fd5b5061030560048036038101908080359060200190929190803560ff169060200190929190803573ffffffffffffffffffffffffffffffffffffffff169060200190929190803590602001908201803590602001908080601f0160208091040260200160405190810160405280939291908181526020018383808284378201915050505050509192919290803590602001908201803590602001908080601f0160208091040260200160405190810160405280939291908181526020018383808284378201915050505050509192919290803560ff169060200190929190505050610dbf565b005b34801561031357600080fd5b506103d0600480360381019080803560001916906020019092919080359060200190820180359060200190808060200260200160405190810160405280939291908181526020018383602002808284378201915050505050509192919290803590602001908201803590602001908080602002602001604051908101604052809392919081815260200183836020028082843782019150505050505091929192908035906020019092919080359060200190929190505050611159565b005b3480156103de57600080fd5b506104216004803603810190808035600019169060200190929190803573ffffffffffffffffffffffffffffffffffffffff169060200190929190505050611500565b6040518082815260200191505060405180910390f35b34801561044357600080fd5b5061051c60048036038101908080359060200190929190803573ffffffffffffffffffffffffffffffffffffffff169060200190929190803590602001908201803590602001908080601f0160208091040260200160405190810160405280939291908181526020018383808284378201915050505050509192919290803590602001908201803590602001908080601f01602080910402602001604051908101604052809392919081815260200183838082843782019150505050505091929192908035600019169060200190929190505050611566565b005b34801561052a57600080fd5b506105536004803603810190808035906020019092919080359060200190929190505050611a21565b60405180806020018573ffffffffffffffffffffffffffffffffffffffff1673ffffffffffffffffffffffffffffffffffffffff168152602001806020018473ffffffffffffffffffffffffffffffffffffffff1673ffffffffffffffffffffffffffffffffffffffff168152602001838103835287818151815260200191508051906020019080838360005b838110156105fb5780820151818401526020810190506105e0565b50505050905090810190601f1680156106285780820380516001836020036101000a031916815260200191505b50838103825285818151815260200191508051906020019080838360005b83811015610661578082015181840152602081019050610646565b50505050905090810190601f16801561068e5780820380516001836020036101000a031916815260200191505b50965050505050505060405180910390f35b3480156106ac57600080fd5b506106b5611d4c565b604051808273ffffffffffffffffffffffffffffffffffffffff1673ffffffffffffffffffffffffffffffffffffffff16815260200191505060405180910390f35b6107196004803603810190808035600019169060200190929190505050611d71565b005b34801561072757600080fd5b5061074a6004803603810190808035600019169060200190929190505050611e97565b604051808215151515815260200191505060405180910390f35b34801561077057600080fd5b5061078f60048036038101908080359060200190929190505050611f72565b604051808215151515815260200191505060405180910390f35b3480156107b557600080fd5b506107d460048036038101908080359060200190929190505050612021565b604051808215151515815260200191505060405180910390f35b3480156107fa57600080fd5b506108196004803603810190808035906020019092919050505061218a565b005b34801561082757600080fd5b5061088c600480360381019080803590602001908201803590602001908080601f0160208091040260200160405190810160405280939291908181526020018383808284378201915050505050509192919290803590602001909291905050506122e3565b005b34801561089a57600080fd5b506108bd600480360381019080803560001916906020019092919050505061232b565b005b81600360008360001916600019168152602001908152602001600020600f01541415610901576001600560006101000a81548160ff0219169083151502179055505b6000600560006101000a81548160ff0219169083151502179055505050565b600080600060036000886000191660001916815260200190815260200160002060020160008773ffffffffffffffffffffffffffffffffffffffff1673ffffffffffffffffffffffffffffffffffffffff16815260200190815260200160002054915061098d82866127e4565b15610aa257600360008860001916600019168152602001908152602001600020600301600086600019166000191681526020019081526020016000206002016000815480929190600101919050559050836003600089600019166000191681526020019081526020016000206003016000876000191660001916815260200190815260200160002060000160008381526020019081526020016000209080519060200190610a3c92919061296c565b5060016003600089600019166000191681526020019081526020016000206003016000876000191660001916815260200190815260200160002060010160006101000a81548160ff02191690836004811115610a9457fe5b021790555060019250610aa7565b600092505b5050949350505050565b60036000826000191660001916815260200190815260200160002060040160007f696e73757265720000000000000000000000000000000000000000000000000060001916815260200190815260200160002060009054906101000a900473ffffffffffffffffffffffffffffffffffffffff1673ffffffffffffffffffffffffffffffffffffffff166108fc600360008460001916600019168152602001908152602001600020600b01549081150290604051600060405180830381858888f19350505050158015610b88573d6000803e3d6000fd5b50600360008260001916600019168152602001908152602001600020600b0154600360008360001916600019168152602001908152602001600020601001600060036000856000191660001916815260200190815260200160002060040160007f696e73757265720000000000000000000000000000000000000000000000000060001916815260200190815260200160002060009054906101000a900473ffffffffffffffffffffffffffffffffffffffff1673ffffffffffffffffffffffffffffffffffffffff1673ffffffffffffffffffffffffffffffffffffffff16815260200190815260200160002060008282540192505081905550600360008260001916600019168152602001908152602001600020600b0154600360008360001916600019168152602001908152602001600020601001600060036000856000191660001916815260200190815260200160002060040160007f627579657200000000000000000000000000000000000000000000000000000060001916815260200190815260200160002060009054906101000a900473ffffffffffffffffffffffffffffffffffffffff1673ffffffffffffffffffffffffffffffffffffffff1673ffffffffffffffffffffffffffffffffffffffff168152602001908152602001600020600082825403925050819055507fa2d501e5669efc556bcba8ba24946df7c6b3802db66c179e1625f44df9fa95b48160405180826000191660001916815260200191505060405180910390a150565b6000610dca87611f72565b8015610df15750610df06002600089815260200190815260200160002060000154611e97565b5b156111505783816000019080519060200190610e0e9291906129ec565b50848160030160006101000a81548173ffffffffffffffffffffffffffffffffffffffff021916908373ffffffffffffffffffffffffffffffffffffffff160217905550338160020160006101000a81548173ffffffffffffffffffffffffffffffffffffffff021916908373ffffffffffffffffffffffffffffffffffffffff16021790555082816004019080519060200190610ead92919061296c565b506002600088815260200190815260200160002060020160003373ffffffffffffffffffffffffffffffffffffffff1673ffffffffffffffffffffffffffffffffffffffff168152602001908152602001600020548160050160003373ffffffffffffffffffffffffffffffffffffffff1673ffffffffffffffffffffffffffffffffffffffff168152602001908152602001600020816000191690555060016000888152602001908152602001600020819080600181540180825580915050906001820390600052602060002090600902016000909192909190915060008201816000019080546001816001161561010002031660029004610fb1929190612a6c565b50600182015481600101556002820160009054906101000a900473ffffffffffffffffffffffffffffffffffffffff168160020160006101000a81548173ffffffffffffffffffffffffffffffffffffffff021916908373ffffffffffffffffffffffffffffffffffffffff1602179055506002820160149054906101000a900460ff168160020160146101000a81548160ff0219169083600281111561105457fe5b02179055506003820160009054906101000a900473ffffffffffffffffffffffffffffffffffffffff168160030160006101000a81548173ffffffffffffffffffffffffffffffffffffffff021916908373ffffffffffffffffffffffffffffffffffffffff160217905550600482018160040190805460018160011615610100020316600290046110e7929190612af3565b50600682018160060160008201816000019080546001816001161561010002031660029004611117929190612af3565b506001820154816001015550506008820181600801908054600181600116156101000203166002900461114b929190612a6c565b505050505b50505050505050565b6000808160036000896000191660001916815260200190815260200160002060008201548160000190600019169055600182018160010190805461119e929190612b7a565b50600582018160050160008201548160000155600182015481600101556002820160009054906101000a900460ff168160020160006101000a81548160ff021916908360048111156111ec57fe5b02179055505050600882018160080160008201548160000155600182015481600101556002820160009054906101000a900460ff168160020160006101000a81548160ff0219169083600481111561124057fe5b02179055505050600b82015481600b0155600c82015481600c0155600d82015481600d0155600e82015481600e0155600f82015481600f01559050508560036000896000191660001916815260200190815260200160002060010190805190602001906112ae929190612bcc565b50600090505b85518110156114005784818151811015156112cb57fe5b906020019060200201516003600089600019166000191681526020019081526020016000206002016000888481518110151561130357fe5b9060200190602002015173ffffffffffffffffffffffffffffffffffffffff1673ffffffffffffffffffffffffffffffffffffffff1681526020019081526020016000208160001916905550858181518110151561135d57fe5b906020019060200201516003600089600019166000191681526020019081526020016000206004016000878481518110151561139557fe5b906020019060200201516000191660001916815260200190815260200160002060006101000a81548173ffffffffffffffffffffffffffffffffffffffff021916908373ffffffffffffffffffffffffffffffffffffffff16021790555080806001019150506112b4565b86600360008960001916600019168152602001908152602001600020600001816000191690555083600360008960001916600019168152602001908152602001600020600f018190555082600360008960001916600019168152602001908152602001600020600b01819055506000600360008960001916600019168152602001908152602001600020600e01819055508660036000896000191660001916815260200190815260200160002060000181600019169055507f72dbb4020c53749dc8545b23b311eeb1dff0b7c1104f9c22edf39a3c696ad8388760405180826000191660001916815260200191505060405180910390a150505050505050565b600060036000846000191660001916815260200190815260200160002060100160008373ffffffffffffffffffffffffffffffffffffffff1673ffffffffffffffffffffffffffffffffffffffff16815260200190815260200160002054905092915050565b6000838160000190805190602001906115809291906129ec565b50848160030160006101000a81548173ffffffffffffffffffffffffffffffffffffffff021916908373ffffffffffffffffffffffffffffffffffffffff160217905550338160020160006101000a81548173ffffffffffffffffffffffffffffffffffffffff021916908373ffffffffffffffffffffffffffffffffffffffff16021790555060018160020160146101000a81548160ff0219169083600281111561162857fe5b02179055508281600401908051906020019061164592919061296c565b506003600083600019166000191681526020019081526020016000206002600088815260200190815260200160002060008201548160000190600019169055600182018160010190805461169a929190612b7a565b50600582018160050160008201548160000155600182015481600101556002820160009054906101000a900460ff168160020160006101000a81548160ff021916908360048111156116e857fe5b02179055505050600882018160080160008201548160000155600182015481600101556002820160009054906101000a900460ff168160020160006101000a81548160ff0219169083600481111561173c57fe5b02179055505050600b82015481600b0155600c82015481600c0155600d82015481600d0155600e82015481600e0155600f82015481600f01559050506002600087815260200190815260200160002060020160003373ffffffffffffffffffffffffffffffffffffffff1673ffffffffffffffffffffffffffffffffffffffff168152602001908152602001600020548160050160003373ffffffffffffffffffffffffffffffffffffffff1673ffffffffffffffffffffffffffffffffffffffff16815260200190815260200160002081600019169055506001600087815260200190815260200160002081908060018154018082558091505090600182039060005260206000209060090201600090919290919091506000820181600001908054600181600116156101000203166002900461187b929190612a6c565b50600182015481600101556002820160009054906101000a900473ffffffffffffffffffffffffffffffffffffffff168160020160006101000a81548173ffffffffffffffffffffffffffffffffffffffff021916908373ffffffffffffffffffffffffffffffffffffffff1602179055506002820160149054906101000a900460ff168160020160146101000a81548160ff0219169083600281111561191e57fe5b02179055506003820160009054906101000a900473ffffffffffffffffffffffffffffffffffffffff168160030160006101000a81548173ffffffffffffffffffffffffffffffffffffffff021916908373ffffffffffffffffffffffffffffffffffffffff160217905550600482018160040190805460018160011615610100020316600290046119b1929190612af3565b506006820181600601600082018160000190805460018160011615610100020316600290046119e1929190612af3565b5060018201548160010155505060088201816008019080546001816001161561010002031660029004611a15929190612a6c565b50505050505050505050565b6060600060606000806001600088815260200190815260200160002086815481101515611a4a57fe5b9060005260206000209060090201905060006002811115611a6757fe5b8160020160149054906101000a900460ff166002811115611a8457fe5b1415611add576040805190810160405280600881526020017f617070726f766564000000000000000000000000000000000000000000000000815250816008019080519060200190611ad79291906129ec565b50611bb0565b60016002811115611aea57fe5b8160020160149054906101000a900460ff166002811115611b0757fe5b1415611b60576040805190810160405280600781526020017f70656e64696e6700000000000000000000000000000000000000000000000000815250816008019080519060200190611b5a9291906129ec565b50611baf565b6040805190810160405280600681526020017f72656a6563740000000000000000000000000000000000000000000000000000815250816008019080519060200190611bad9291906129ec565b505b5b806000018160020160009054906101000a900473ffffffffffffffffffffffffffffffffffffffff16826008018360030160009054906101000a900473ffffffffffffffffffffffffffffffffffffffff16838054600181600116156101000203166002900480601f016020809104026020016040519081016040528092919081815260200182805460018160011615610100020316600290048015611c975780601f10611c6c57610100808354040283529160200191611c97565b820191906000526020600020905b815481529060010190602001808311611c7a57829003601f168201915b50505050509350818054600181600116156101000203166002900480601f016020809104026020016040519081016040528092919081815260200182805460018160011615610100020316600290048015611d335780601f10611d0857610100808354040283529160200191611d33565b820191906000526020600020905b815481529060010190602001808311611d1657829003601f168201915b5050505050915094509450945094505092959194509250565b6000809054906101000a900473ffffffffffffffffffffffffffffffffffffffff1681565b34600360008360001916600019168152602001908152602001600020601001600060036000856000191660001916815260200190815260200160002060040160007f627579657200000000000000000000000000000000000000000000000000000060001916815260200190815260200160002060009054906101000a900473ffffffffffffffffffffffffffffffffffffffff1673ffffffffffffffffffffffffffffffffffffffff1673ffffffffffffffffffffffffffffffffffffffff168152602001908152602001600020600082825401925050819055507f83b13d06086ba418bcd1e24e34adcb327aff5a1221770e0f9858190de5288ea281346040518083600019166000191681526020018281526020019250505060405180910390a150565b600080600090505b60036000846000191660001916815260200190815260200160002060010180549050811015611f67573373ffffffffffffffffffffffffffffffffffffffff1660036000856000191660001916815260200190815260200160002060010182815481101515611f0a57fe5b9060005260206000200160009054906101000a900473ffffffffffffffffffffffffffffffffffffffff1673ffffffffffffffffffffffffffffffffffffffff161415611f5a5760019150611f6c565b8080600101915050611e9f565b600091505b50919050565b600080600160008481526020019081526020016000208054905014151515611f9957600080fd5b60006002811115611fa657fe5b6001600084815260200190815260200160002060018060008681526020019081526020016000208054905003815481101515611fde57fe5b906000526020600020906009020160020160149054906101000a900460ff16600281111561200857fe5b1415612017576001905061201c565b600090505b919050565b60008060016000848152602001908152602001600020805490501415151561204857600080fd5b600160008381526020019081526020016000206001806000858152602001908152602001600020805490500381548110151561208057fe5b906000526020600020906009020160030160009054906101000a900473ffffffffffffffffffffffffffffffffffffffff1673ffffffffffffffffffffffffffffffffffffffff163373ffffffffffffffffffffffffffffffffffffffff1614801561210757506121066002600084815260200190815260200160002060000154611e97565b5b15612180576000600160008481526020019081526020016000206001806000868152602001908152602001600020805490500381548110151561214657fe5b906000526020600020906009020160020160146101000a81548160ff0219169083600281111561217257fe5b021790555060019050612185565b600090505b919050565b60006001600083815260200190815260200160002080549050141515156121b057600080fd5b60016000828152602001908152602001600020600180600084815260200190815260200160002080549050038154811015156121e857fe5b906000526020600020906009020160030160009054906101000a900473ffffffffffffffffffffffffffffffffffffffff1673ffffffffffffffffffffffffffffffffffffffff163373ffffffffffffffffffffffffffffffffffffffff1614801561226f575061226e6002600083815260200190815260200160002060000154611e97565b5b156122e057600260016000838152602001908152602001600020600180600085815260200190815260200160002080549050038154811015156122ae57fe5b906000526020600020906009020160020160146101000a81548160ff021916908360028111156122da57fe5b02179055505b50565b60006123046002600084815260200190815260200160002060000154611e97565b15612326578281600601600001908051906020019061232492919061296c565b505b505050565b600560009054906101000a900460ff1615156123af576040517f08c379a000000000000000000000000000000000000000000000000000000000815260040180806020018281038252601a8152602001807f496e636f727265637420416d6f756e742052656365697665642100000000000081525060200191505060405180910390fd5b60036000826000191660001916815260200190815260200160002060050160000154600360008360001916600019168152602001908152602001600020600c0154014211801561245d575060036000826000191660001916815260200190815260200160002060050160000154600360008360001916600019168152602001908152602001600020600d015401600360008360001916600019168152602001908152602001600020600c0154105b801561246e575061246d81611e97565b5b156127955760036000826000191660001916815260200190815260200160002060040160007f73656c6c6572000000000000000000000000000000000000000000000000000060001916815260200190815260200160002060009054906101000a900473ffffffffffffffffffffffffffffffffffffffff1673ffffffffffffffffffffffffffffffffffffffff166108fc600360008460001916600019168152602001908152602001600020600501600101549081150290604051600060405180830381858888f1935050505015801561254d573d6000803e3d6000fd5b5060036000826000191660001916815260200190815260200160002060050160010154600360008360001916600019168152602001908152602001600020601001600060036000856000191660001916815260200190815260200160002060040160007f73656c6c6572000000000000000000000000000000000000000000000000000060001916815260200190815260200160002060009054906101000a900473ffffffffffffffffffffffffffffffffffffffff1673ffffffffffffffffffffffffffffffffffffffff1673ffffffffffffffffffffffffffffffffffffffff1681526020019081526020016000206000828254019250508190555060036000826000191660001916815260200190815260200160002060050160010154600360008360001916600019168152602001908152602001600020601001600060036000856000191660001916815260200190815260200160002060040160007f627579657200000000000000000000000000000000000000000000000000000060001916815260200190815260200160002060009054906101000a900473ffffffffffffffffffffffffffffffffffffffff1673ffffffffffffffffffffffffffffffffffffffff1673ffffffffffffffffffffffffffffffffffffffff168152602001908152602001600020600082825403925050819055507f8be31eb62ffa82ee24c9cf44fde01133c028125014e5978a52e7bc06a8c72f0a816001604051808360001916600019168152602001821515151581526020019250505060405180910390a15b7f8be31eb62ffa82ee24c9cf44fde01133c028125014e5978a52e7bc06a8c72f0a816000604051808360001916600019168152602001821515151581526020019250505060405180910390a150565b600080600090507f6275796572000000000000000000000000000000000000000000000000000000846000191614801561284157507f50757263686173654f72646572000000000000000000000000000000000000008360001916145b8061289e57507f73656c6c65720000000000000000000000000000000000000000000000000000846000191614801561289d57507f496e766f696365000000000000000000000000000000000000000000000000008360001916145b5b806128fb57507f736869707065720000000000000000000000000000000000000000000000000084600019161480156128fa57507f42696c6c4f664c6164696e6700000000000000000000000000000000000000008360001916145b5b8061295857507f696e737572657200000000000000000000000000000000000000000000000000846000191614801561295757507f496e7572616e636551756f746174696f6e0000000000000000000000000000008360001916145b5b1561296257600190505b8091505092915050565b828054600181600116156101000203166002900490600052602060002090601f016020900481019282601f106129ad57805160ff19168380011785556129db565b828001600101855582156129db579182015b828111156129da5782518255916020019190600101906129bf565b5b5090506129e89190612c56565b5090565b828054600181600116156101000203166002900490600052602060002090601f016020900481019282601f10612a2d57805160ff1916838001178555612a5b565b82800160010185558215612a5b579182015b82811115612a5a578251825591602001919060010190612a3f565b5b509050612a689190612c56565b5090565b828054600181600116156101000203166002900490600052602060002090601f016020900481019282601f10612aa55780548555612ae2565b82800160010185558215612ae257600052602060002091601f016020900482015b82811115612ae1578254825591600101919060010190612ac6565b5b509050612aef9190612c56565b5090565b828054600181600116156101000203166002900490600052602060002090601f016020900481019282601f10612b2c5780548555612b69565b82800160010185558215612b6957600052602060002091601f016020900482015b82811115612b68578254825591600101919060010190612b4d565b5b509050612b769190612c56565b5090565b828054828255906000526020600020908101928215612bbb5760005260206000209182015b82811115612bba578254825591600101919060010190612b9f565b5b509050612bc89190612c7b565b5090565b828054828255906000526020600020908101928215612c45579160200282015b82811115612c445782518260006101000a81548173ffffffffffffffffffffffffffffffffffffffff021916908373ffffffffffffffffffffffffffffffffffffffff16021790555091602001919060010190612bec565b5b509050612c529190612c7b565b5090565b612c7891905b80821115612c74576000816000905550600101612c5c565b5090565b90565b612cbb91905b80821115612cb757600081816101000a81549073ffffffffffffffffffffffffffffffffffffffff021916905550600101612c81565b5090565b905600a165627a7a723058205acd61682b1b8dff03d813e60a55f3febeabfc8fc225296a39c6000a6853f4950029",
  "source": "pragma solidity ^0.4.4;\r\ncontract Ownable{\r\n  address public owner;\r\n\r\n  constructor() public {\r\n      owner=msg.sender;\r\n  }\r\n  modifier ownerOnly{\r\n      require(owner==msg.sender);\r\n      _;\r\n  }\r\n\r\n  function transferOwnership(address newOwner) internal ownerOnly{\r\n      require(newOwner!=address(0));\r\n      owner=newOwner;\r\n  }\r\n}\r\n\r\ncontract TradeRegulation is Ownable{\r\n    //trace\r\n    //The trace functionality is designed in the way that when a party produces a product\r\n    //it needs to upload the information regarding the product onto the blockchain. The proofstatus of\r\n    //that specific information will be set as pending right after the info is uploaded. By the time the receiver\r\n    //received the product, it can choose either to approve or reject it after careful examination. If it rejects it,\r\n    //further resolving actions will be executed.\r\n\r\n    struct Proof {//connect name to address\r\n        string location;\r\n        uint productID;\r\n        address owner;\r\n        proofStatus proof;\r\n        address nextOwner;\r\n        bytes photo;\r\n        mapping(address => bytes32) roleOfAddress;\r\n        characteristics productInfo;\r\n        string statusProof;\r\n    //    Tx transaction;\r\n    }\r\n\r\n\r\n\r\n    //the content of characteristics is not comprehensive, but it will serve as a conceptual template\r\n    struct characteristics {\r\n\r\n                //enum damageOrNot;\r\n                //enum quality;\r\n                bytes productType;\r\n                uint temperature; //some product need transferring within certain temperature range\r\n\r\n\r\n    }\r\n\r\n\r\n\r\n    enum proofStatus {\r\n        approved,\r\n        pending,\r\n        rejected\r\n    }\r\n\r\n    enum proofRoles {\r\n        supplier,\r\n        distributor,\r\n        transport,\r\n        retailer,\r\n        consumer\r\n    }\r\n\r\n    mapping(uint=>Proof[]) trace;  //for a single product, there is only one supply chain\r\n    mapping(uint => Tx) pitx; // productID pointing to transaction\r\n\r\n    ///the functions of uploading info in the characterisitcs are not enough, but they will serve as a conceptual template\r\n    function updateProductType ( bytes productType, uint pI ){\r\n        if(isRightParties(pitx[pI].tradeID)){ // could be modified\r\n        Proof temp;\r\n        temp.productInfo.productType = productType;\r\n        }\r\n\r\n    }\r\n\r\n    //@param pI = productID\r\n    //@param address of the next Owner\r\n    //@param the location of the checkpoint\r\n    //initialize a supply chain (done by raw materials producers)\r\n\r\n    function initSC(uint pI, address next, string loca, bytes pho, bytes32 tradesID){\r\n\r\n        //suppliers will have special address?\r\n         Proof temp;\r\n         temp.location = loca;\r\n         temp.nextOwner = next;\r\n         temp.owner = msg.sender; //could be modified\r\n         temp.proof = proofStatus.pending;\r\n         temp.photo = pho;\r\n       //  temp.transaction = trades[tradesID];\r\n         pitx[pI] = trades[tradesID];\r\n         temp.roleOfAddress[msg.sender] = pitx[pI].tradePartiesRole[msg.sender];\r\n         trace[pI].push(temp);\r\n    }\r\n\r\n\r\n     function checkApproved (uint pI) returns (bool){\r\n            require(trace[pI].length != 0);\r\n                    if (trace[pI][trace[pI].length-1].proof == proofStatus.approved){\r\n                        return true;\r\n                    }\r\n                    return false;\r\n     }\r\n\r\n     function approve(uint pI) returns (bool)\r\n        {\r\n            require(trace[pI].length != 0);\r\n            if (msg.sender == trace[pI][trace[pI].length-1].nextOwner && isRightParties(pitx[pI].tradeID)){\r\n                trace[pI][trace[pI].length-1].proof = proofStatus.approved ;\r\n                return true;\r\n            }\r\n            return false;\r\n\r\n        }\r\n\r\n     function reject (uint pI)\r\n        {\r\n            require(trace[pI].length != 0);\r\n            if (msg.sender == trace[pI][trace[pI].length-1].nextOwner && isRightParties(pitx[pI].tradeID)){\r\n                trace[pI][trace[pI].length-1].proof = proofStatus.rejected ;\r\n            }\r\n        }\r\n\r\n    //@param pI = productID\r\n    //@param  status = whether you approve it or not\r\n    //approve that the status of the product is correct\r\n\r\n    //upload function can be modified according to real world situation; ex. if IoT can upload location by itself, there is no need to upload it manually.\r\n    //a separate function can be written\r\n\r\n    function uploadInfo (uint pI, proofStatus status, address next, string location, bytes photo, proofRoles partyRole)\r\n    {\r\n            if (checkApproved(pI) && isRightParties(pitx[pI].tradeID)){\r\n            Proof temp;\r\n            temp.location = location;\r\n            temp.nextOwner = next;\r\n            temp.owner = msg.sender;\r\n            temp.photo=photo;\r\n            temp.roleOfAddress[msg.sender] = pitx[pI].tradePartiesRole[msg.sender];//\r\n            trace[pI].push(temp);\r\n\r\n        }\r\n    }\r\n\r\n    function checkNodes (uint pI, uint stage) returns (string, address, string, address){\r\n        Proof storage temp = trace[pI][stage];\r\n        //string status;\r\n        if (temp.proof == proofStatus.approved){\r\n            temp.statusProof = \"approved\";\r\n        }\r\n        else{\r\n            if (temp.proof == proofStatus.pending){\r\n                temp.statusProof = \"pending\";\r\n            }\r\n            else{\r\n                temp.statusProof = \"reject\";\r\n            }\r\n        }\r\n\r\n        return(temp.location, temp.owner, temp.statusProof, temp.nextOwner );//could be changed\r\n    }\r\n\r\n    //trace\r\n  enum Status{\r\n      NOT_UPLOADED,\r\n      UNDER_REVIEW,\r\n      APPROVED,\r\n      REJECTED,\r\n      PARTIALLY_APPROVED\r\n  }\r\n  struct doc{\r\n      mapping(uint=>bytes) versionDir;\r\n      Status stat;\r\n      uint version;\r\n  }\r\n  struct LetterOfCredit{\r\n      uint numDays;\r\n      uint creditAmt;\r\n      Status stat;\r\n  }\r\n  /*\r\n  Struct that has characteristics of number of days before payment,\r\n  the owed money amount, and the status of the invoice.\r\n  */\r\n  struct Invoice{\r\n      uint numDays;\r\n      uint owedAmt;\r\n      Status stat;\r\n  }\r\n  /*\r\n  Struct with characteristics of a transaction between parties in supply chain.\r\n  */\r\n  struct Tx{\r\n       bytes32 tradeID;\r\n       address[] tradeParties;\r\n       mapping(address=>bytes32) tradePartiesRole;\r\n       mapping(bytes32=>doc) typeToDoc;\r\n       mapping(bytes32 => address) ethAddressByRole;\r\n       LetterOfCredit loc;\r\n       Invoice inv;\r\n       uint insuranceAmt;\r\n       uint shippingDate;\r\n       uint locIssueDate;\r\n       uint version;\r\n       uint objCount;\r\n       mapping(address=>uint) balances;\r\n   }\r\n   mapping(bytes32=>Tx) trades;\r\n   mapping(bytes32=>uint) amountCondition;\r\n\r\n\r\n\r\n   event TradeCreated(bytes32 id);\r\n   event DocumentUploaded(bytes32 id, bytes32 docType);\r\n   event SellerPayed(bytes32 id, bool success);\r\n   event InsurerPayed(bytes32 id);\r\n   event DepositMade(bytes32 id, uint amount);\r\n\r\n\r\n   function createTrade(bytes32 id, address[] tradeParties, bytes32[] tradePartiesRole, uint objCount, uint insuranceAmt) {\r\n    Tx storage myTrans;\r\n    trades[id]=myTrans;\r\n    trades[id].tradeParties = tradeParties;\r\n\r\n    for (uint i = 0; i < tradeParties.length; i++) {\r\n      trades[id].tradePartiesRole[tradeParties[i]] = tradePartiesRole[i];\r\n      trades[id].ethAddressByRole[tradePartiesRole[i]] = tradeParties[i];\r\n    }\r\n    trades[id].tradeID = id;\r\n    trades[id].objCount=objCount;\r\n    trades[id].insuranceAmt=insuranceAmt;\r\n    trades[id].version=0;\r\n    trades[id].tradeID=id;\r\n    TradeCreated(id);\r\n   }\r\n\r\n\r\n   function upload(bytes32 uid, address sender, bytes32 docType, bytes _hash) returns (bool){\r\n    bytes32 role = trades[uid].tradePartiesRole[sender];\r\n    if (isUploadAllowed(role, docType)) {\r\n      uint currIndex = trades[uid].typeToDoc[docType].version++;\r\n      trades[uid].typeToDoc[docType].versionDir[currIndex] = _hash;\r\n      trades[uid].typeToDoc[docType].stat = Status.UNDER_REVIEW;\r\n      return true;\r\n      DocumentUploaded(uid,docType);\r\n    } else return false;\r\n  }\r\n\r\n    function isRightParties (bytes32 id ) returns (bool){\r\n       for (uint i = 0; i < trades[id].tradeParties.length; i++){\r\n            if ( trades[id].tradeParties[i]  == msg.sender){\r\n                return true;\r\n            }\r\n       }\r\n       return false;\r\n    }\r\n\r\n  function isUploadAllowed(bytes32 role, bytes32 docType) internal returns(bool success) {\r\n     bool isAllowed = false;\r\n     if ((role == \"buyer\" && (docType == \"PurchaseOrder\")) ||\r\n       ((role == \"seller\") && (docType == \"Invoice\")) ||\r\n       (role == \"shipper\" && docType == \"BillOfLading\") || (role == \"insurer\" && docType == \"InuranceQuotation\")) {\r\n       isAllowed = true;\r\n     }\r\n     return isAllowed;\r\n   }\r\n\r\n\r\n   function payToSeller(bytes32 id) {\r\n   if(!isAmtMet) {\r\n    revert(\"Incorrect Amount Received!\");\r\n   }\r\n     if(now>trades[id].shippingDate+trades[id].loc.numDays && trades[id].shippingDate<(trades[id].locIssueDate+trades[id].loc.numDays) && isRightParties(id)) {\r\n       trades[id].ethAddressByRole[\"seller\"].transfer(trades[id].loc.creditAmt);\r\n       trades[id].balances[trades[id].ethAddressByRole[\"seller\"]]+=trades[id].loc.creditAmt;\r\n       trades[id].balances[trades[id].ethAddressByRole[\"buyer\"]]-=trades[id].loc.creditAmt;\r\n       SellerPayed(id, true);\r\n     }\r\n\r\n     SellerPayed(id, false);\r\n   }\r\n\r\n\r\n   function payToInsurer(bytes32 id) {\r\n     trades[id].ethAddressByRole[\"insurer\"].transfer(trades[id].insuranceAmt);\r\n     trades[id].balances[trades[id].ethAddressByRole[\"insurer\"]]+=trades[id].insuranceAmt;\r\n     trades[id].balances[trades[id].ethAddressByRole[\"buyer\"]]-=trades[id].insuranceAmt;\r\n     InsurerPayed(id);\r\n   }\r\n\r\n   bool isAmtMet=false;\r\n\r\n   function isAmountMet(uint amountReceived, bytes32 id)  {\r\n    if(trades[id].objCount==amountReceived) {\r\n      isAmtMet=true;\r\n    }\r\n    isAmtMet=false;\r\n   }\r\n\r\n\r\n   function depositFunds(bytes32 id) payable{\r\n    trades[id].balances[trades[id].ethAddressByRole[\"buyer\"]]+=msg.value;\r\n    DepositMade(id, msg.value);\r\n   }\r\n\r\n   function getBalance(bytes32 id, address myAdd) returns (uint){\r\n    return trades[id].balances[myAdd];\r\n   }\r\n}\r\ncontract TemperatureRegulation is Ownable{\r\n  string location;\r\n  address temperatureWriter;\r\n  int minTemp;\r\n  int maxTemp;\r\n  int[] failedTemps;\r\n  uint[] failedTimes;\r\n  uint totMeasured=0;\r\n  uint totFails=0;\r\n  constructor(int _minTemp, int _maxTemp, string loc, address tempWriter) {\r\n    minTemp=_minTemp;\r\n    maxTemp=_maxTemp;\r\n    location=loc;\r\n    temperatureWriter=tempWriter;\r\n  }\r\n  modifier onlyTempWriter{\r\n    require(msg.sender==temperatureWriter);\r\n    _;\r\n  }\r\n  function fillFailArray(int[] allMeasurements, int[] emptyArr) {\r\n    for(uint i=0;i<allMeasurements.length;i++) {\r\n      if(allMeasurements[i]<minTemp||allMeasurements[i]>maxTemp) {\r\n        emptyArr[i]=(allMeasurements[i]);\r\n      }\r\n    }\r\n  }\r\n  //failedTemps parameter should be empty array, helper method will fill with failed temps.\r\n  function reportErrors(int[] allMeasurements, uint[] _failedTimes, int[] _failedTemps, uint _totMeasured) onlyTempWriter{\r\n    fillFailArray(allMeasurements, _failedTemps);\r\n    require(_failedTimes.length==_failedTemps.length);\r\n    //int currNumErr=failedTimes.length\r\n    uint numErr=_failedTimes.length;\r\n    for(uint i=0; i<numErr;i++) {\r\n      failedTemps.push(_failedTemps[i]);\r\n      failedTimes.push(_failedTimes[i]);\r\n    }\r\n    totMeasured=_totMeasured;\r\n    totFails=numErr;\r\n  }\r\n  function success() returns(bool) {\r\n    return failedTemps.length==0 && totMeasured>0;\r\n  }\r\n  function getNumMeasured() returns(uint) {\r\n    return totMeasured;\r\n  }\r\n  function getNumFailed() returns(uint) {\r\n    return totFails;\r\n  }\r\n  function getFailedTempAtIndex(uint index) returns (int){\r\n    return failedTemps[index];\r\n  }\r\n  function getTimeOfFailAtIndex(uint index) returns (uint){\r\n  return failedTimes[index];\r\n  }\r\n}\r\n",
  "sourcePath": "C:\\Users\\hlee9\\OneDrive\\Documents\\Github\\hello-world\\contracts\\mainContract.sol",
  "compiler": {
    "name": "solc",
    "version": "0.4.24+commit.e67f0147.Emscripten.clang"
  },
  "schemaVersion": "2.0.0",
  "updatedAt": "2018-07-05T14:28:34.855Z"
}