{
  "contractName": "TradeRegulation",
  "abi": [
    {
      "constant": true,
      "inputs": [],
      "name": "owner",
      "outputs": [
        {
          "name": "",
          "type": "address"
        }
      ],
      "payable": false,
      "stateMutability": "view",
      "type": "function"
    },
    {
      "anonymous": false,
      "inputs": [
        {
          "indexed": false,
          "name": "id",
          "type": "bytes32"
        }
      ],
      "name": "TradeCreated",
      "type": "event"
    },
    {
      "anonymous": false,
      "inputs": [
        {
          "indexed": false,
          "name": "id",
          "type": "bytes32"
        },
        {
          "indexed": false,
          "name": "docType",
          "type": "bytes32"
        }
      ],
      "name": "DocumentUploaded",
      "type": "event"
    },
    {
      "anonymous": false,
      "inputs": [
        {
          "indexed": false,
          "name": "id",
          "type": "bytes32"
        },
        {
          "indexed": false,
          "name": "success",
          "type": "bool"
        }
      ],
      "name": "SellerPayed",
      "type": "event"
    },
    {
      "anonymous": false,
      "inputs": [
        {
          "indexed": false,
          "name": "id",
          "type": "bytes32"
        }
      ],
      "name": "InsurerPayed",
      "type": "event"
    },
    {
      "anonymous": false,
      "inputs": [
        {
          "indexed": false,
          "name": "id",
          "type": "bytes32"
        },
        {
          "indexed": false,
          "name": "amount",
          "type": "uint256"
        }
      ],
      "name": "DepositMade",
      "type": "event"
    },
    {
      "constant": false,
      "inputs": [
        {
          "name": "pI",
          "type": "uint256"
        }
      ],
      "name": "checkApproved",
      "outputs": [
        {
          "name": "",
          "type": "bool"
        }
      ],
      "payable": false,
      "stateMutability": "nonpayable",
      "type": "function"
    },
    {
      "constant": false,
      "inputs": [
        {
          "name": "pI",
          "type": "uint256"
        },
        {
          "name": "next",
          "type": "address"
        }
      ],
      "name": "approve",
      "outputs": [],
      "payable": false,
      "stateMutability": "nonpayable",
      "type": "function"
    },
    {
      "constant": false,
      "inputs": [
        {
          "name": "pI",
          "type": "uint256"
        },
        {
          "name": "next",
          "type": "address"
        }
      ],
      "name": "reject",
      "outputs": [],
      "payable": false,
      "stateMutability": "nonpayable",
      "type": "function"
    },
    {
      "constant": false,
      "inputs": [
        {
          "name": "pI",
          "type": "uint256"
        },
        {
          "name": "status",
          "type": "uint8"
        },
        {
          "name": "next",
          "type": "address"
        },
        {
          "name": "location",
          "type": "string"
        },
        {
          "name": "photo",
          "type": "bytes"
        }
      ],
      "name": "uploadInfo",
      "outputs": [],
      "payable": false,
      "stateMutability": "nonpayable",
      "type": "function"
    },
    {
      "constant": false,
      "inputs": [
        {
          "name": "pI",
          "type": "uint256"
        },
        {
          "name": "stage",
          "type": "uint256"
        }
      ],
      "name": "checkNodes",
      "outputs": [
        {
          "name": "",
          "type": "string"
        },
        {
          "name": "",
          "type": "address"
        },
        {
          "name": "",
          "type": "uint8"
        },
        {
          "name": "",
          "type": "address"
        }
      ],
      "payable": false,
      "stateMutability": "nonpayable",
      "type": "function"
    },
    {
      "constant": false,
      "inputs": [
        {
          "name": "id",
          "type": "bytes32"
        },
        {
          "name": "tradeParties",
          "type": "address[]"
        },
        {
          "name": "tradePartiesRole",
          "type": "bytes32[]"
        },
        {
          "name": "objCount",
          "type": "uint256"
        },
        {
          "name": "insuranceAmt",
          "type": "uint256"
        }
      ],
      "name": "createTrade",
      "outputs": [],
      "payable": false,
      "stateMutability": "nonpayable",
      "type": "function"
    },
    {
      "constant": false,
      "inputs": [
        {
          "name": "uid",
          "type": "bytes32"
        },
        {
          "name": "sender",
          "type": "address"
        },
        {
          "name": "docType",
          "type": "bytes32"
        },
        {
          "name": "_hash",
          "type": "bytes"
        }
      ],
      "name": "upload",
      "outputs": [],
      "payable": false,
      "stateMutability": "nonpayable",
      "type": "function"
    },
    {
      "constant": false,
      "inputs": [
        {
          "name": "id",
          "type": "bytes32"
        }
      ],
      "name": "payToSeller",
      "outputs": [],
      "payable": false,
      "stateMutability": "nonpayable",
      "type": "function"
    },
    {
      "constant": false,
      "inputs": [
        {
          "name": "id",
          "type": "bytes32"
        }
      ],
      "name": "payToInsurer",
      "outputs": [],
      "payable": false,
      "stateMutability": "nonpayable",
      "type": "function"
    },
    {
      "constant": false,
      "inputs": [
        {
          "name": "amountReceived",
          "type": "uint256"
        },
        {
          "name": "id",
          "type": "bytes32"
        }
      ],
      "name": "isAmountMet",
      "outputs": [
        {
          "name": "",
          "type": "bool"
        }
      ],
      "payable": false,
      "stateMutability": "nonpayable",
      "type": "function"
    },
    {
      "constant": false,
      "inputs": [
        {
          "name": "id",
          "type": "bytes32"
        }
      ],
      "name": "depositFunds",
      "outputs": [],
      "payable": true,
      "stateMutability": "payable",
      "type": "function"
    }
  ],
  "bytecode": "0x60806040526000600460006101000a81548160ff021916908315150217905550336000806101000a81548173ffffffffffffffffffffffffffffffffffffffff021916908373ffffffffffffffffffffffffffffffffffffffff160217905550611aaf8061006e6000396000f3006080604052600436106100ba576000357c0100000000000000000000000000000000000000000000000000000000900463ffffffff16806303ab52fd146100bf5780630b1821901461010c5780630ea8e8091461015f5780631502ff081461020457806352cc8ca7146102355780638a46f4af146103005780638da5cb5b1461042b578063945ce82d14610482578063af3be4d8146104a6578063d1284d5b146104eb578063ec6a170d146105d1578063febe490914610602575b600080fd5b3480156100cb57600080fd5b5061010a60048036038101908080359060200190929190803573ffffffffffffffffffffffffffffffffffffffff16906020019092919050505061064f565b005b34801561011857600080fd5b50610145600480360381019080803590602001909291908035600019169060200190929190505050610782565b604051808215151515815260200191505060405180910390f35b34801561016b57600080fd5b506102026004803603810190808035600019169060200190929190803573ffffffffffffffffffffffffffffffffffffffff1690602001909291908035600019169060200190929190803590602001908201803590602001908080601f01602080910402602001604051908101604052809392919081815260200183838082843782019150505050505091929192905050506107f4565b005b34801561021057600080fd5b5061023360048036038101908080356000191690602001909291905050506109cd565b005b34801561024157600080fd5b506102fe600480360381019080803560001916906020019092919080359060200190820180359060200190808060200260200160405190810160405280939291908181526020018383602002808284378201915050505050509192919290803590602001908201803590602001908080602002602001604051908101604052809392919081815260200183836020028082843782019150505050505091929192908035906020019092919080359060200190929190505050610ae7565b005b34801561030c57600080fd5b506103356004803603810190808035906020019092919080359060200190929190505050610d45565b60405180806020018573ffffffffffffffffffffffffffffffffffffffff1673ffffffffffffffffffffffffffffffffffffffff16815260200184600281111561037b57fe5b60ff1681526020018373ffffffffffffffffffffffffffffffffffffffff1673ffffffffffffffffffffffffffffffffffffffff168152602001828103825286818151815260200191508051906020019080838360005b838110156103ed5780820151818401526020810190506103d2565b50505050905090810190601f16801561041a5780820380516001836020036101000a031916815260200191505b509550505050505060405180910390f35b34801561043757600080fd5b50610440610e8b565b604051808273ffffffffffffffffffffffffffffffffffffffff1673ffffffffffffffffffffffffffffffffffffffff16815260200191505060405180910390f35b6104a46004803603810190808035600019169060200190929190505050610eb0565b005b3480156104b257600080fd5b506104d160048036038101908080359060200190929190505050610efa565b604051808215151515815260200191505060405180910390f35b3480156104f757600080fd5b506105cf60048036038101908080359060200190929190803560ff169060200190929190803573ffffffffffffffffffffffffffffffffffffffff169060200190929190803590602001908201803590602001908080601f0160208091040260200160405190810160405280939291908181526020018383808284378201915050505050509192919290803590602001908201803590602001908080601f0160208091040260200160405190810160405280939291908181526020018383808284378201915050505050509192919290505050610fa9565b005b3480156105dd57600080fd5b50610600600480360381019080803560001916906020019092919050505061121a565b005b34801561060e57600080fd5b5061064d60048036038101908080359060200190929190803573ffffffffffffffffffffffffffffffffffffffff1690602001909291905050506114c8565b005b600060016000848152602001908152602001600020805490501415151561067557600080fd5b60016000838152602001908152602001600020600180600085815260200190815260200160002080549050038154811015156106ad57fe5b906000526020600020906005020160030160009054906101000a900473ffffffffffffffffffffffffffffffffffffffff1673ffffffffffffffffffffffffffffffffffffffff163373ffffffffffffffffffffffffffffffffffffffff16141561077e576002600160008481526020019081526020016000206001806000868152602001908152602001600020805490500381548110151561074c57fe5b906000526020600020906005020160020160146101000a81548160ff0219169083600281111561077857fe5b02179055505b5050565b600082600260008460001916600019168152602001908152602001600020600e015414156107ce576001600460006101000a81548160ff021916908315150217905550600190506107ee565b6000600460006101000a81548160ff021916908315150217905550600090505b92915050565b60008060026000876000191660001916815260200190815260200160002060010160008673ffffffffffffffffffffffffffffffffffffffff1673ffffffffffffffffffffffffffffffffffffffff16815260200190815260200160002054915061085f82856115fb565b156109bf5760026000876000191660001916815260200190815260200160002060020160008560001916600019168152602001908152602001600020600201600081548092919060010191905055905082600260008860001916600019168152602001908152602001600020600201600086600019166000191681526020019081526020016000206000016000838152602001908152602001600020908051906020019061090e929190611783565b5060016002600088600019166000191681526020019081526020016000206002016000866000191660001916815260200190815260200160002060010160006101000a81548160ff0219169083600481111561096657fe5b02179055507faf5ab1697ee2aab04faf1fd35b77b1d2a8285e78af221c858622acd5a5213266868560405180836000191660001916815260200182600019166000191681526020019250505060405180910390a16109c4565b6109c5565b5b505050505050565b60026000826000191660001916815260200190815260200160002060030160007f696e73757265720000000000000000000000000000000000000000000000000060001916815260200190815260200160002060009054906101000a900473ffffffffffffffffffffffffffffffffffffffff1673ffffffffffffffffffffffffffffffffffffffff166108fc600260008460001916600019168152602001908152602001600020600a01549081150290604051600060405180830381858888f19350505050158015610aa4573d6000803e3d6000fd5b507fa2d501e5669efc556bcba8ba24946df7c6b3802db66c179e1625f44df9fa95b48160405180826000191660001916815260200191505060405180910390a150565b6000846002600088600019166000191681526020019081526020016000206000019080519060200190610b1b929190611803565b50600090505b8451811015610c6d578381815181101515610b3857fe5b9060200190602002015160026000886000191660001916815260200190815260200160002060010160008784815181101515610b7057fe5b9060200190602002015173ffffffffffffffffffffffffffffffffffffffff1673ffffffffffffffffffffffffffffffffffffffff16815260200190815260200160002081600019169055508481815181101515610bca57fe5b9060200190602002015160026000886000191660001916815260200190815260200160002060030160008684815181101515610c0257fe5b906020019060200201516000191660001916815260200190815260200160002060006101000a81548173ffffffffffffffffffffffffffffffffffffffff021916908373ffffffffffffffffffffffffffffffffffffffff1602179055508080600101915050610b21565b82600260008860001916600019168152602001908152602001600020600e018190555081600260008860001916600019168152602001908152602001600020600a01819055506000600260008860001916600019168152602001908152602001600020600d018190555085600260008860001916600019168152602001908152602001600020600f0181600019169055507f72dbb4020c53749dc8545b23b311eeb1dff0b7c1104f9c22edf39a3c696ad8388660405180826000191660001916815260200191505060405180910390a1505050505050565b60606000806000806001600088815260200190815260200160002086815481101515610d6d57fe5b90600052602060002090600502019050806000018160020160009054906101000a900473ffffffffffffffffffffffffffffffffffffffff168260020160149054906101000a900460ff168360030160009054906101000a900473ffffffffffffffffffffffffffffffffffffffff16838054600181600116156101000203166002900480601f016020809104026020016040519081016040528092919081815260200182805460018160011615610100020316600290048015610e725780601f10610e4757610100808354040283529160200191610e72565b820191906000526020600020905b815481529060010190602001808311610e5557829003601f168201915b5050505050935094509450945094505092959194509250565b6000809054906101000a900473ffffffffffffffffffffffffffffffffffffffff1681565b7f83b13d06086ba418bcd1e24e34adcb327aff5a1221770e0f9858190de5288ea281346040518083600019166000191681526020018281526020019250505060405180910390a150565b600080600160008481526020019081526020016000208054905014151515610f2157600080fd5b60006002811115610f2e57fe5b6001600084815260200190815260200160002060018060008681526020019081526020016000208054905003815481101515610f6657fe5b906000526020600020906005020160020160149054906101000a900460ff166002811115610f9057fe5b1415610f9f5760019050610fa4565b600090505b919050565b6000610fb486610efa565b156112125782816000019080519060200190610fd192919061188d565b50838160030160006101000a81548173ffffffffffffffffffffffffffffffffffffffff021916908373ffffffffffffffffffffffffffffffffffffffff160217905550338160020160006101000a81548173ffffffffffffffffffffffffffffffffffffffff021916908373ffffffffffffffffffffffffffffffffffffffff16021790555081816004019080519060200190611070929190611783565b50600160008781526020019081526020016000208190806001815401808255809150509060018203906000526020600020906005020160009091929091909150600082018160000190805460018160011615610100020316600290046110d792919061190d565b50600182015481600101556002820160009054906101000a900473ffffffffffffffffffffffffffffffffffffffff168160020160006101000a81548173ffffffffffffffffffffffffffffffffffffffff021916908373ffffffffffffffffffffffffffffffffffffffff1602179055506002820160149054906101000a900460ff168160020160146101000a81548160ff0219169083600281111561117a57fe5b02179055506003820160009054906101000a900473ffffffffffffffffffffffffffffffffffffffff168160030160006101000a81548173ffffffffffffffffffffffffffffffffffffffff021916908373ffffffffffffffffffffffffffffffffffffffff1602179055506004820181600401908054600181600116156101000203166002900461120d929190611994565b505050505b505050505050565b600460009054906101000a900460ff16151561129e576040517f08c379a000000000000000000000000000000000000000000000000000000000815260040180806020018281038252601a8152602001807f496e636f727265637420416d6f756e742052656365697665642100000000000081525060200191505060405180910390fd5b60026000826000191660001916815260200190815260200160002060040160000154600260008360001916600019168152602001908152602001600020600b0154014211801561134c575060026000826000191660001916815260200190815260200160002060040160000154600260008360001916600019168152602001908152602001600020600c015401600260008360001916600019168152602001908152602001600020600b0154105b156114795760026000826000191660001916815260200190815260200160002060030160007f73656c6c6572000000000000000000000000000000000000000000000000000060001916815260200190815260200160002060009054906101000a900473ffffffffffffffffffffffffffffffffffffffff1673ffffffffffffffffffffffffffffffffffffffff166108fc600260008460001916600019168152602001908152602001600020600401600101549081150290604051600060405180830381858888f1935050505015801561142b573d6000803e3d6000fd5b507f8be31eb62ffa82ee24c9cf44fde01133c028125014e5978a52e7bc06a8c72f0a816001604051808360001916600019168152602001821515151581526020019250505060405180910390a15b7f8be31eb62ffa82ee24c9cf44fde01133c028125014e5978a52e7bc06a8c72f0a816000604051808360001916600019168152602001821515151581526020019250505060405180910390a150565b60006001600084815260200190815260200160002080549050141515156114ee57600080fd5b600160008381526020019081526020016000206001806000858152602001908152602001600020805490500381548110151561152657fe5b906000526020600020906005020160030160009054906101000a900473ffffffffffffffffffffffffffffffffffffffff1673ffffffffffffffffffffffffffffffffffffffff163373ffffffffffffffffffffffffffffffffffffffff1614156115f757600060016000848152602001908152602001600020600180600086815260200190815260200160002080549050038154811015156115c557fe5b906000526020600020906005020160020160146101000a81548160ff021916908360028111156115f157fe5b02179055505b5050565b600080600090507f6275796572000000000000000000000000000000000000000000000000000000846000191614801561165857507f50757263686173654f72646572000000000000000000000000000000000000008360001916145b806116b557507f73656c6c6572000000000000000000000000000000000000000000000000000084600019161480156116b457507f496e766f696365000000000000000000000000000000000000000000000000008360001916145b5b8061171257507f7368697070657200000000000000000000000000000000000000000000000000846000191614801561171157507f42696c6c4f664c6164696e6700000000000000000000000000000000000000008360001916145b5b8061176f57507f696e737572657200000000000000000000000000000000000000000000000000846000191614801561176e57507f496e7572616e636551756f746174696f6e0000000000000000000000000000008360001916145b5b1561177957600190505b8091505092915050565b828054600181600116156101000203166002900490600052602060002090601f016020900481019282601f106117c457805160ff19168380011785556117f2565b828001600101855582156117f2579182015b828111156117f15782518255916020019190600101906117d6565b5b5090506117ff9190611a1b565b5090565b82805482825590600052602060002090810192821561187c579160200282015b8281111561187b5782518260006101000a81548173ffffffffffffffffffffffffffffffffffffffff021916908373ffffffffffffffffffffffffffffffffffffffff16021790555091602001919060010190611823565b5b5090506118899190611a40565b5090565b828054600181600116156101000203166002900490600052602060002090601f016020900481019282601f106118ce57805160ff19168380011785556118fc565b828001600101855582156118fc579182015b828111156118fb5782518255916020019190600101906118e0565b5b5090506119099190611a1b565b5090565b828054600181600116156101000203166002900490600052602060002090601f016020900481019282601f106119465780548555611983565b8280016001018555821561198357600052602060002091601f016020900482015b82811115611982578254825591600101919060010190611967565b5b5090506119909190611a1b565b5090565b828054600181600116156101000203166002900490600052602060002090601f016020900481019282601f106119cd5780548555611a0a565b82800160010185558215611a0a57600052602060002091601f016020900482015b82811115611a095782548255916001019190600101906119ee565b5b509050611a179190611a1b565b5090565b611a3d91905b80821115611a39576000816000905550600101611a21565b5090565b90565b611a8091905b80821115611a7c57600081816101000a81549073ffffffffffffffffffffffffffffffffffffffff021916905550600101611a46565b5090565b905600a165627a7a723058200239f1f0dcf5fb5bfcf73dc4afd37403b68b9f67d8dd0cded1bf78257e507b210029",
  "source": "pragma solidity ^0.4.4;\r\ncontract Ownable{\r\n  address public owner;\r\n  constructor() public {\r\n      owner=msg.sender;\r\n  }\r\n  modifier ownerOnly{\r\n      require(owner==msg.sender);\r\n      _;\r\n  }\r\n  function transferOwnership(address newOwner) internal ownerOnly{\r\n      require(newOwner!=address(0));\r\n      owner=newOwner;\r\n  }\r\n}\r\n\r\ncontract TradeRegulation is Ownable{\r\n    //trace\r\n    //The trace functionality is designed in the way that when a party produces a product\r\n    //it needs to upload the information regarding the product onto the blockchain. The proofstatus of\r\n    //that specific information will be set as pending right after the info is uploaded. By the time the receiver\r\n    //received the product, it can choose either to approve or reject it after careful examination. If it rejects it,\r\n    //further resolving actions will be executed.\r\n\r\n    struct Proof {//connect name to address\r\n        string location;\r\n        uint productID;\r\n        address owner;\r\n        proofStatus proof ;\r\n        address nextOwner;\r\n        bytes photoHash;\r\n    }\r\n\r\n    enum proofStatus {\r\n        approved,\r\n        pending,\r\n        rejected\r\n    }\r\n\r\n    mapping(uint=>Proof[]) trace;  //for a single product, there is only one supply chain\r\n\r\n    //@param pI = productID\r\n    //@param address of the next Owner\r\n    //@param the location of the checkpoint\r\n    //initialize a supply chain (done by raw material producer)\r\n    /*function initSC(uint pI, address next, string loca, bytes pho){\r\n         Proof temp;\r\n         temp.location = loca;\r\n         temp.nextOwner = next;\r\n         temp.owner = msg.sender; //could be modified\r\n         temp.proof = proofStatus.pending;\r\n         temp.photoHash = pho;\r\n         trace[pI].push(temp);\r\n    }\r\n    */\r\n\r\n     function checkApproved (uint pI) returns (bool){\r\n            require(trace[pI].length != 0);\r\n                    if (trace[pI][trace[pI].length-1].proof == proofStatus.approved){\r\n                        return true;\r\n                    }\r\n                    return false;\r\n     }\r\n\r\n     function approve(uint pI, address next)\r\n        {\r\n            require(trace[pI].length != 0);\r\n            if (msg.sender == trace[pI][trace[pI].length-1].nextOwner){\r\n                trace[pI][trace[pI].length-1].proof = proofStatus.approved ;\r\n            }\r\n\r\n        }\r\n\r\n     function reject (uint pI, address next)\r\n        {\r\n            require(trace[pI].length != 0);\r\n            if (msg.sender == trace[pI][trace[pI].length-1].nextOwner){\r\n                trace[pI][trace[pI].length-1].proof = proofStatus.rejected ;\r\n            }\r\n        }\r\n\r\n    //@param pI = productID\r\n    //@param  status = whether you approve it or not\r\n    //approve that the status of the product is correct\r\n\r\n    function uploadInfo (uint pI, proofStatus status, address next, string location, bytes photo)\r\n    {\r\n            if (checkApproved(pI)){\r\n            Proof temp;\r\n            temp.location = location;\r\n            temp.nextOwner = next;\r\n            temp.owner = msg.sender;\r\n            temp.photoHash=photo;\r\n            trace[pI].push(temp);\r\n        }\r\n    }\r\n\r\n    function checkNodes (uint pI, uint stage) returns (string, address, proofStatus, address){\r\n        Proof storage temp = trace[pI][stage];\r\n        return(temp.location, temp.owner, temp.proof, temp.nextOwner );//could be changed\r\n    }\r\n\r\n    //trace\r\n  enum Status{\r\n      NOT_UPLOADED,\r\n      UNDER_REVIEW,\r\n      APPROVED,\r\n      REJECTED,\r\n      PARTIALLY_APPROVED\r\n  }\r\n  struct doc{\r\n      mapping(uint=>bytes) versionDir;\r\n      Status stat;\r\n      uint version;\r\n  }\r\n  struct LetterOfCredit{\r\n      uint numDays;\r\n      uint creditAmt;\r\n      Status stat;\r\n  }\r\n  /*\r\n  Struct that has characteristics of number of days before payment,\r\n  the owed money amount, and the status of the invoice.\r\n  */\r\n  struct Invoice{\r\n      uint numDays;\r\n      uint owedAmt;\r\n      Status stat;\r\n  }\r\n  /*\r\n  Struct with characteristics of a transaction between parties in supply chain.\r\n  */\r\n  struct Tx{\r\n       address[] tradeParties;\r\n       mapping(address=>bytes32) tradePartiesRole;\r\n       mapping(bytes32=>doc) typeToDoc;\r\n       mapping(bytes32 => address) ethAddressByRole;\r\n       LetterOfCredit loc;\r\n       Invoice inv;\r\n       uint insuranceAmt;\r\n       uint shippingDate;\r\n       uint locIssueDate;\r\n       uint version;\r\n       uint objCount;\r\n       bytes32 tradeId;\r\n   }\r\n   mapping(bytes32=>Tx) trades;\r\n   mapping(bytes32=>uint) amountCondition;\r\n   event TradeCreated(bytes32 id);\r\n   event DocumentUploaded(bytes32 id, bytes32 docType);\r\n   event SellerPayed(bytes32 id, bool success);\r\n   event InsurerPayed(bytes32 id);\r\n   event DepositMade(bytes32 id, uint amount);\r\n\r\n   function createTrade(bytes32 id, address[] tradeParties, bytes32[] tradePartiesRole, uint objCount, uint insuranceAmt) {\r\n    trades[id].tradeParties = tradeParties;\r\n    for (uint i = 0; i < tradeParties.length; i++) {\r\n      trades[id].tradePartiesRole[tradeParties[i]] = tradePartiesRole[i];\r\n      trades[id].ethAddressByRole[tradePartiesRole[i]] = tradeParties[i];\r\n    }\r\n    trades[id].objCount=objCount;\r\n    trades[id].insuranceAmt=insuranceAmt;\r\n    trades[id].version=0;\r\n    trades[id].tradeId=id;\r\n    TradeCreated(id);\r\n   }\r\n\r\n   function upload(bytes32 uid, address sender, bytes32 docType, bytes _hash) {\r\n    bytes32 role = trades[uid].tradePartiesRole[sender];\r\n    if (isUploadAllowed(role, docType)) {\r\n      uint currIndex = trades[uid].typeToDoc[docType].version++;\r\n      trades[uid].typeToDoc[docType].versionDir[currIndex] = _hash;\r\n      trades[uid].typeToDoc[docType].stat = Status.UNDER_REVIEW;\r\n      DocumentUploaded(uid,docType);\r\n    } else return;\r\n  }\r\n  function isUploadAllowed(bytes32 role, bytes32 docType) internal returns(bool success) {\r\n     bool isAllowed = false;\r\n     if ((role == \"buyer\" && (docType == \"PurchaseOrder\")) ||\r\n       ((role == \"seller\") && (docType == \"Invoice\")) ||\r\n       (role == \"shipper\" && docType == \"BillOfLading\") || (role == \"insurer\" && docType == \"InuranceQuotation\")) {\r\n       isAllowed = true;\r\n     }\r\n     return isAllowed;\r\n   }\r\n   function payToSeller(bytes32 id) {\r\n   if(!isAmtMet) {\r\n    revert(\"Incorrect Amount Received!\");\r\n   }\r\n     if(now>trades[id].shippingDate+trades[id].loc.numDays && trades[id].shippingDate<(trades[id].locIssueDate+trades[id].loc.numDays)) {\r\n       trades[id].ethAddressByRole[\"seller\"].transfer(trades[id].loc.creditAmt);\r\n       SellerPayed(id, true);\r\n     }\r\n     SellerPayed(id, false);\r\n   }\r\n   function payToInsurer(bytes32 id) {\r\n     trades[id].ethAddressByRole[\"insurer\"].transfer(trades[id].insuranceAmt);\r\n     InsurerPayed(id);\r\n   }\r\n   bool isAmtMet=false;\r\n   function isAmountMet(uint amountReceived, bytes32 id) returns (bool) {\r\n    if(trades[id].objCount==amountReceived) {\r\n      isAmtMet=true;\r\n      return true;\r\n    }\r\n    isAmtMet=false;\r\n    return false;\r\n   }\r\n   function depositFunds(bytes32 id) payable{\r\n\r\n    DepositMade(id, msg.value);\r\n   }\r\n}\r\n",
  "sourcePath": "C:\\Users\\hlee9\\OneDrive\\Documents\\Github\\hello-world\\contracts\\mainContract.sol",
  "compiler": {
    "name": "solc",
    "version": "0.4.24+commit.e67f0147.Emscripten.clang"
  },
  "schemaVersion": "2.0.0",
  "updatedAt": "2018-07-04T09:37:23.669Z"
}