{
  "contractName": "TradeRegulation",
  "abi": [
    {
      "constant": true,
      "inputs": [],
      "name": "owner",
      "outputs": [
        {
          "name": "",
          "type": "address"
        }
      ],
      "payable": false,
      "stateMutability": "view",
      "type": "function"
    },
    {
      "anonymous": false,
      "inputs": [
        {
          "indexed": false,
          "name": "id",
          "type": "bytes32"
        }
      ],
      "name": "TradeCreated",
      "type": "event"
    },
    {
      "anonymous": false,
      "inputs": [
        {
          "indexed": false,
          "name": "id",
          "type": "bytes32"
        },
        {
          "indexed": false,
          "name": "docType",
          "type": "bytes32"
        }
      ],
      "name": "DocumentUploaded",
      "type": "event"
    },
    {
      "anonymous": false,
      "inputs": [
        {
          "indexed": false,
          "name": "id",
          "type": "bytes32"
        },
        {
          "indexed": false,
          "name": "success",
          "type": "bool"
        }
      ],
      "name": "SellerPayed",
      "type": "event"
    },
    {
      "anonymous": false,
      "inputs": [
        {
          "indexed": false,
          "name": "id",
          "type": "bytes32"
        }
      ],
      "name": "InsurerPayed",
      "type": "event"
    },
    {
      "anonymous": false,
      "inputs": [
        {
          "indexed": false,
          "name": "id",
          "type": "bytes32"
        },
        {
          "indexed": false,
          "name": "amount",
          "type": "uint256"
        }
      ],
      "name": "DepositMade",
      "type": "event"
    },
    {
      "constant": false,
      "inputs": [
        {
          "name": "pI",
          "type": "uint256"
        }
      ],
      "name": "checkApproved",
      "outputs": [
        {
          "name": "",
          "type": "bool"
        }
      ],
      "payable": false,
      "stateMutability": "nonpayable",
      "type": "function"
    },
    {
      "constant": false,
      "inputs": [
        {
          "name": "pI",
          "type": "uint256"
        },
        {
          "name": "next",
          "type": "address"
        }
      ],
      "name": "approve",
      "outputs": [],
      "payable": false,
      "stateMutability": "nonpayable",
      "type": "function"
    },
    {
      "constant": false,
      "inputs": [
        {
          "name": "pI",
          "type": "uint256"
        },
        {
          "name": "next",
          "type": "address"
        }
      ],
      "name": "reject",
      "outputs": [],
      "payable": false,
      "stateMutability": "nonpayable",
      "type": "function"
    },
    {
      "constant": false,
      "inputs": [
        {
          "name": "pI",
          "type": "uint256"
        },
        {
          "name": "status",
          "type": "uint8"
        },
        {
          "name": "next",
          "type": "address"
        },
        {
          "name": "location",
          "type": "string"
        },
        {
          "name": "photo",
          "type": "bytes"
        }
      ],
      "name": "uploadInfo",
      "outputs": [],
      "payable": false,
      "stateMutability": "nonpayable",
      "type": "function"
    },
    {
      "constant": false,
      "inputs": [
        {
          "name": "pI",
          "type": "uint256"
        },
        {
          "name": "stage",
          "type": "uint256"
        }
      ],
      "name": "checkNodes",
      "outputs": [
        {
          "name": "",
          "type": "string"
        },
        {
          "name": "",
          "type": "address"
        },
        {
          "name": "",
          "type": "uint8"
        },
        {
          "name": "",
          "type": "address"
        }
      ],
      "payable": false,
      "stateMutability": "nonpayable",
      "type": "function"
    },
    {
      "constant": false,
      "inputs": [
        {
          "name": "uid",
          "type": "bytes32"
        },
        {
          "name": "tradeParties",
          "type": "address[]"
        },
        {
          "name": "tradePartiesRole",
          "type": "bytes32[]"
        },
        {
          "name": "objCount",
          "type": "uint256"
        }
      ],
      "name": "createTrade",
      "outputs": [],
      "payable": false,
      "stateMutability": "nonpayable",
      "type": "function"
    },
    {
      "constant": false,
      "inputs": [
        {
          "name": "uid",
          "type": "bytes32"
        },
        {
          "name": "sender",
          "type": "address"
        },
        {
          "name": "docType",
          "type": "bytes32"
        },
        {
          "name": "_hash",
          "type": "bytes"
        }
      ],
      "name": "upload",
      "outputs": [],
      "payable": false,
      "stateMutability": "nonpayable",
      "type": "function"
    },
    {
      "constant": false,
      "inputs": [
        {
          "name": "id",
          "type": "bytes32"
        }
      ],
      "name": "payToSeller",
      "outputs": [],
      "payable": false,
      "stateMutability": "nonpayable",
      "type": "function"
    },
    {
      "constant": false,
      "inputs": [
        {
          "name": "id",
          "type": "bytes32"
        }
      ],
      "name": "payToInsurer",
      "outputs": [],
      "payable": false,
      "stateMutability": "nonpayable",
      "type": "function"
    },
    {
      "constant": false,
      "inputs": [
        {
          "name": "amountReceived",
          "type": "uint256"
        },
        {
          "name": "id",
          "type": "bytes32"
        }
      ],
      "name": "isAmountMet",
      "outputs": [
        {
          "name": "",
          "type": "bool"
        }
      ],
      "payable": false,
      "stateMutability": "nonpayable",
      "type": "function"
    },
    {
      "constant": false,
      "inputs": [
        {
          "name": "id",
          "type": "bytes32"
        }
      ],
      "name": "depositFunds",
      "outputs": [],
      "payable": true,
      "stateMutability": "payable",
      "type": "function"
    }
  ],
  "bytecode": "0x60806040526000600460006101000a81548160ff021916908315150217905550336000806101000a81548173ffffffffffffffffffffffffffffffffffffffff021916908373ffffffffffffffffffffffffffffffffffffffff1602179055506119928061006e6000396000f3006080604052600436106100ba576000357c0100000000000000000000000000000000000000000000000000000000900463ffffffff16806303ab52fd146100bf5780630b1821901461010c5780630ea8e8091461015f5780631502ff08146102045780638a46f4af146102355780638da5cb5b14610360578063945ce82d146103b7578063af3be4d8146103db578063d1284d5b14610420578063ec6a170d14610506578063ef853f8314610537578063febe4909146105f8575b600080fd5b3480156100cb57600080fd5b5061010a60048036038101908080359060200190929190803573ffffffffffffffffffffffffffffffffffffffff169060200190929190505050610645565b005b34801561011857600080fd5b50610145600480360381019080803590602001909291908035600019169060200190929190505050610778565b604051808215151515815260200191505060405180910390f35b34801561016b57600080fd5b506102026004803603810190808035600019169060200190929190803573ffffffffffffffffffffffffffffffffffffffff1690602001909291908035600019169060200190929190803590602001908201803590602001908080601f01602080910402602001604051908101604052809392919081815260200183838082843782019150505050505091929192905050506107ea565b005b34801561021057600080fd5b5061023360048036038101908080356000191690602001909291905050506109c3565b005b34801561024157600080fd5b5061026a6004803603810190808035906020019092919080359060200190929190505050610add565b60405180806020018573ffffffffffffffffffffffffffffffffffffffff1673ffffffffffffffffffffffffffffffffffffffff1681526020018460028111156102b057fe5b60ff1681526020018373ffffffffffffffffffffffffffffffffffffffff1673ffffffffffffffffffffffffffffffffffffffff168152602001828103825286818151815260200191508051906020019080838360005b83811015610322578082015181840152602081019050610307565b50505050905090810190601f16801561034f5780820380516001836020036101000a031916815260200191505b509550505050505060405180910390f35b34801561036c57600080fd5b50610375610c23565b604051808273ffffffffffffffffffffffffffffffffffffffff1673ffffffffffffffffffffffffffffffffffffffff16815260200191505060405180910390f35b6103d96004803603810190808035600019169060200190929190505050610c48565b005b3480156103e757600080fd5b5061040660048036038101908080359060200190929190505050610c92565b604051808215151515815260200191505060405180910390f35b34801561042c57600080fd5b5061050460048036038101908080359060200190929190803560ff169060200190929190803573ffffffffffffffffffffffffffffffffffffffff169060200190929190803590602001908201803590602001908080601f0160208091040260200160405190810160405280939291908181526020018383808284378201915050505050509192919290803590602001908201803590602001908080601f0160208091040260200160405190810160405280939291908181526020018383808284378201915050505050509192919290505050610d41565b005b34801561051257600080fd5b506105356004803603810190808035600019169060200190929190505050610fb2565b005b34801561054357600080fd5b506105f66004803603810190808035600019169060200190929190803590602001908201803590602001908080602002602001604051908101604052809392919081815260200183836020028082843782019150505050505091929192908035906020019082018035906020019080806020026020016040519081016040528093929190818152602001838360200280828437820191505050505050919291929080359060200190929190505050611260565b005b34801561060457600080fd5b5061064360048036038101908080359060200190929190803573ffffffffffffffffffffffffffffffffffffffff1690602001909291905050506113ab565b005b600060016000848152602001908152602001600020805490501415151561066b57600080fd5b60016000838152602001908152602001600020600180600085815260200190815260200160002080549050038154811015156106a357fe5b906000526020600020906005020160020160009054906101000a900473ffffffffffffffffffffffffffffffffffffffff1673ffffffffffffffffffffffffffffffffffffffff163373ffffffffffffffffffffffffffffffffffffffff161415610774576002600160008481526020019081526020016000206001806000868152602001908152602001600020805490500381548110151561074257fe5b906000526020600020906005020160020160146101000a81548160ff0219169083600281111561076e57fe5b02179055505b5050565b600082600260008460001916600019168152602001908152602001600020600e015414156107c4576001600460006101000a81548160ff021916908315150217905550600190506107e4565b6000600460006101000a81548160ff021916908315150217905550600090505b92915050565b60008060026000876000191660001916815260200190815260200160002060010160008673ffffffffffffffffffffffffffffffffffffffff1673ffffffffffffffffffffffffffffffffffffffff16815260200190815260200160002054915061085582856114de565b156109b557600260008760001916600019168152602001908152602001600020600201600085600019166000191681526020019081526020016000206002016000815480929190600101919050559050826002600088600019166000191681526020019081526020016000206002016000866000191660001916815260200190815260200160002060000160008381526020019081526020016000209080519060200190610904929190611666565b5060016002600088600019166000191681526020019081526020016000206002016000866000191660001916815260200190815260200160002060010160006101000a81548160ff0219169083600481111561095c57fe5b02179055507faf5ab1697ee2aab04faf1fd35b77b1d2a8285e78af221c858622acd5a5213266868560405180836000191660001916815260200182600019166000191681526020019250505060405180910390a16109ba565b6109bb565b5b505050505050565b60026000826000191660001916815260200190815260200160002060030160007f696e73757265720000000000000000000000000000000000000000000000000060001916815260200190815260200160002060009054906101000a900473ffffffffffffffffffffffffffffffffffffffff1673ffffffffffffffffffffffffffffffffffffffff166108fc600260008460001916600019168152602001908152602001600020600a01549081150290604051600060405180830381858888f19350505050158015610a9a573d6000803e3d6000fd5b507fa2d501e5669efc556bcba8ba24946df7c6b3802db66c179e1625f44df9fa95b48160405180826000191660001916815260200191505060405180910390a150565b60606000806000806001600088815260200190815260200160002086815481101515610b0557fe5b90600052602060002090600502019050806000018160020160009054906101000a900473ffffffffffffffffffffffffffffffffffffffff168260020160149054906101000a900460ff168360030160009054906101000a900473ffffffffffffffffffffffffffffffffffffffff16838054600181600116156101000203166002900480601f016020809104026020016040519081016040528092919081815260200182805460018160011615610100020316600290048015610c0a5780601f10610bdf57610100808354040283529160200191610c0a565b820191906000526020600020905b815481529060010190602001808311610bed57829003601f168201915b5050505050935094509450945094505092959194509250565b6000809054906101000a900473ffffffffffffffffffffffffffffffffffffffff1681565b7f83b13d06086ba418bcd1e24e34adcb327aff5a1221770e0f9858190de5288ea281346040518083600019166000191681526020018281526020019250505060405180910390a150565b600080600160008481526020019081526020016000208054905014151515610cb957600080fd5b60006002811115610cc657fe5b6001600084815260200190815260200160002060018060008681526020019081526020016000208054905003815481101515610cfe57fe5b906000526020600020906005020160020160149054906101000a900460ff166002811115610d2857fe5b1415610d375760019050610d3c565b600090505b919050565b6000610d4c86610c92565b15610faa5782816000019080519060200190610d699291906116e6565b50838160030160006101000a81548173ffffffffffffffffffffffffffffffffffffffff021916908373ffffffffffffffffffffffffffffffffffffffff160217905550338160020160006101000a81548173ffffffffffffffffffffffffffffffffffffffff021916908373ffffffffffffffffffffffffffffffffffffffff16021790555081816004019080519060200190610e08929190611666565b5060016000878152602001908152602001600020819080600181540180825580915050906001820390600052602060002090600502016000909192909190915060008201816000019080546001816001161561010002031660029004610e6f929190611766565b50600182015481600101556002820160009054906101000a900473ffffffffffffffffffffffffffffffffffffffff168160020160006101000a81548173ffffffffffffffffffffffffffffffffffffffff021916908373ffffffffffffffffffffffffffffffffffffffff1602179055506002820160149054906101000a900460ff168160020160146101000a81548160ff02191690836002811115610f1257fe5b02179055506003820160009054906101000a900473ffffffffffffffffffffffffffffffffffffffff168160030160006101000a81548173ffffffffffffffffffffffffffffffffffffffff021916908373ffffffffffffffffffffffffffffffffffffffff16021790555060048201816004019080546001816001161561010002031660029004610fa59291906117ed565b505050505b505050505050565b600460009054906101000a900460ff161515611036576040517f08c379a000000000000000000000000000000000000000000000000000000000815260040180806020018281038252601a8152602001807f496e636f727265637420416d6f756e742052656365697665642100000000000081525060200191505060405180910390fd5b60026000826000191660001916815260200190815260200160002060040160000154600260008360001916600019168152602001908152602001600020600b015401421180156110e4575060026000826000191660001916815260200190815260200160002060040160000154600260008360001916600019168152602001908152602001600020600c015401600260008360001916600019168152602001908152602001600020600b0154105b156112115760026000826000191660001916815260200190815260200160002060030160007f73656c6c6572000000000000000000000000000000000000000000000000000060001916815260200190815260200160002060009054906101000a900473ffffffffffffffffffffffffffffffffffffffff1673ffffffffffffffffffffffffffffffffffffffff166108fc600260008460001916600019168152602001908152602001600020600401600101549081150290604051600060405180830381858888f193505050501580156111c3573d6000803e3d6000fd5b507f8be31eb62ffa82ee24c9cf44fde01133c028125014e5978a52e7bc06a8c72f0a816001604051808360001916600019168152602001821515151581526020019250505060405180910390a15b7f8be31eb62ffa82ee24c9cf44fde01133c028125014e5978a52e7bc06a8c72f0a816000604051808360001916600019168152602001821515151581526020019250505060405180910390a150565b6000836002600087600019166000191681526020019081526020016000206000019080519060200190611294929190611874565b50600090505b83518110156113425782818151811015156112b157fe5b90602001906020020151600260008760001916600019168152602001908152602001600020600101600086848151811015156112e957fe5b9060200190602002015173ffffffffffffffffffffffffffffffffffffffff1673ffffffffffffffffffffffffffffffffffffffff1681526020019081526020016000208160001916905550808060010191505061129a565b81600260008760001916600019168152602001908152602001600020600e01819055507f72dbb4020c53749dc8545b23b311eeb1dff0b7c1104f9c22edf39a3c696ad8388560405180826000191660001916815260200191505060405180910390a15050505050565b60006001600084815260200190815260200160002080549050141515156113d157600080fd5b600160008381526020019081526020016000206001806000858152602001908152602001600020805490500381548110151561140957fe5b906000526020600020906005020160020160009054906101000a900473ffffffffffffffffffffffffffffffffffffffff1673ffffffffffffffffffffffffffffffffffffffff163373ffffffffffffffffffffffffffffffffffffffff1614156114da57600060016000848152602001908152602001600020600180600086815260200190815260200160002080549050038154811015156114a857fe5b906000526020600020906005020160020160146101000a81548160ff021916908360028111156114d457fe5b02179055505b5050565b600080600090507f6275796572000000000000000000000000000000000000000000000000000000846000191614801561153b57507f50757263686173654f72646572000000000000000000000000000000000000008360001916145b8061159857507f73656c6c65720000000000000000000000000000000000000000000000000000846000191614801561159757507f496e766f696365000000000000000000000000000000000000000000000000008360001916145b5b806115f557507f736869707065720000000000000000000000000000000000000000000000000084600019161480156115f457507f42696c6c4f664c6164696e6700000000000000000000000000000000000000008360001916145b5b8061165257507f696e737572657200000000000000000000000000000000000000000000000000846000191614801561165157507f496e7572616e636551756f746174696f6e0000000000000000000000000000008360001916145b5b1561165c57600190505b8091505092915050565b828054600181600116156101000203166002900490600052602060002090601f016020900481019282601f106116a757805160ff19168380011785556116d5565b828001600101855582156116d5579182015b828111156116d45782518255916020019190600101906116b9565b5b5090506116e291906118fe565b5090565b828054600181600116156101000203166002900490600052602060002090601f016020900481019282601f1061172757805160ff1916838001178555611755565b82800160010185558215611755579182015b82811115611754578251825591602001919060010190611739565b5b50905061176291906118fe565b5090565b828054600181600116156101000203166002900490600052602060002090601f016020900481019282601f1061179f57805485556117dc565b828001600101855582156117dc57600052602060002091601f016020900482015b828111156117db5782548255916001019190600101906117c0565b5b5090506117e991906118fe565b5090565b828054600181600116156101000203166002900490600052602060002090601f016020900481019282601f106118265780548555611863565b8280016001018555821561186357600052602060002091601f016020900482015b82811115611862578254825591600101919060010190611847565b5b50905061187091906118fe565b5090565b8280548282559060005260206000209081019282156118ed579160200282015b828111156118ec5782518260006101000a81548173ffffffffffffffffffffffffffffffffffffffff021916908373ffffffffffffffffffffffffffffffffffffffff16021790555091602001919060010190611894565b5b5090506118fa9190611923565b5090565b61192091905b8082111561191c576000816000905550600101611904565b5090565b90565b61196391905b8082111561195f57600081816101000a81549073ffffffffffffffffffffffffffffffffffffffff021916905550600101611929565b5090565b905600a165627a7a723058203c45f96cb4f1895a23901651a31f3acc75bc737a761eb9dbb97cc1858c580d250029",
  "source": "pragma solidity ^0.4.4;\r\ncontract Ownable{\r\n  address public owner;\r\n  constructor() public {\r\n      owner=msg.sender;\r\n  }\r\n  modifier ownerOnly{\r\n      require(owner==msg.sender);\r\n      _;\r\n  }\r\n  function transferOwnership(address newOwner) internal ownerOnly{\r\n      require(newOwner!=address(0));\r\n      owner=newOwner;\r\n  }\r\n}\r\n\r\ncontract TradeRegulation is Ownable{\r\n    //trace\r\n    //The trace functionality is designed in the way that when a party produces a product\r\n    //it needs to upload the information regarding the product onto the blockchain. The proofstatus of\r\n    //that specific information will be set as pending right after the info is uploaded. By the time the receiver\r\n    //received the product, it can choose either to approve or reject it after careful examination. If it rejects it,\r\n    //further resolving actions will be executed.\r\n\r\n    struct Proof {//connect name to address\r\n        string location;\r\n        uint productID;\r\n        address owner;\r\n        proofStatus proof ;\r\n        address nextOwner;\r\n        bytes photoHash;\r\n    }\r\n\r\n    enum proofStatus {\r\n        approved,\r\n        pending,\r\n        rejected\r\n    }\r\n\r\n    mapping(uint=>Proof[]) trace;  //for a single product, there is only one supply chain\r\n\r\n    //@param pI = productID\r\n    //@param address of the next Owner\r\n    //@param the location of the checkpoint\r\n    //initialize a supply chain (done by raw material producer)\r\n    /*function initSC(uint pI, address next, string loca, bytes pho){\r\n         Proof temp;\r\n         temp.location = loca;\r\n         temp.nextOwner = next;\r\n         temp.owner = msg.sender; //could be modified\r\n         temp.proof = proofStatus.pending;\r\n         temp.photo = pho;\r\n         trace[pI].push(temp);\r\n    }\r\n    */\r\n\r\n     function checkApproved (uint pI) returns (bool){\r\n            require(trace[pI].length != 0);\r\n                    if (trace[pI][trace[pI].length-1].proof == proofStatus.approved){\r\n                        return true;\r\n                    }\r\n                    return false;\r\n     }\r\n\r\n     function approve(uint pI, address next)\r\n        {\r\n            require(trace[pI].length != 0);\r\n            if (msg.sender == trace[pI][trace[pI].length-1].owner){\r\n                trace[pI][trace[pI].length-1].proof = proofStatus.approved ;\r\n            }\r\n\r\n        }\r\n\r\n     function reject (uint pI, address next)\r\n        {\r\n            require(trace[pI].length != 0);\r\n            if (msg.sender == trace[pI][trace[pI].length-1].owner){\r\n                trace[pI][trace[pI].length-1].proof = proofStatus.rejected ;\r\n            }\r\n        }\r\n\r\n    //@param pI = productID\r\n    //@param  status = whether you approve it or not\r\n    //approve that the status of the product is correct\r\n\r\n    function uploadInfo (uint pI, proofStatus status, address next, string location, bytes photo)\r\n    {\r\n            if (checkApproved(pI)){\r\n            Proof temp;\r\n            temp.location = location;\r\n            temp.nextOwner = next;\r\n            temp.owner = msg.sender;\r\n            temp.photoHash=photo;\r\n            trace[pI].push(temp);\r\n        }\r\n    }\r\n\r\n    function checkNodes (uint pI, uint stage) returns (string, address, proofStatus, address){\r\n        Proof storage temp = trace[pI][stage];\r\n        return(temp.location, temp.owner, temp.proof, temp.nextOwner );//could be changed\r\n    }\r\n\r\n    //trace\r\n  enum Status{\r\n      NOT_UPLOADED,\r\n      UNDER_REVIEW,\r\n      APPROVED,\r\n      REJECTED,\r\n      PARTIALLY_APPROVED\r\n  }\r\n  struct doc{\r\n      mapping(uint=>bytes) versionDir;\r\n      Status stat;\r\n      uint version;\r\n  }\r\n  struct LetterOfCredit{\r\n      uint numDays;\r\n      uint creditAmt;\r\n      Status stat;\r\n  }\r\n  /*\r\n  Struct that has characteristics of number of days before payment,\r\n  the owed money amount, and the status of the invoice.\r\n  */\r\n  struct Invoice{\r\n      uint numDays;\r\n      uint owedAmt;\r\n      Status stat;\r\n  }\r\n  /*\r\n  Struct with characteristics of a transaction between parties in supply chain.\r\n  */\r\n  struct Tx{\r\n       address[] tradeParties;\r\n       mapping(address=>bytes32) tradePartiesRole;\r\n       mapping(bytes32=>doc) typeToDoc;\r\n       mapping(bytes32 => address) ethAddressByRole;\r\n       LetterOfCredit loc;\r\n       Invoice inv;\r\n       uint insuranceAmt;\r\n       uint shippingDate;\r\n       uint locIssueDate;\r\n       uint version;\r\n       uint objCount;\r\n       bytes32 tradeId;\r\n   }\r\n   mapping(bytes32=>Tx) trades;\r\n   mapping(bytes32=>uint) amountCondition;\r\n   event TradeCreated(bytes32 id);\r\n   event DocumentUploaded(bytes32 id, bytes32 docType);\r\n   event SellerPayed(bytes32 id, bool success);\r\n   event InsurerPayed(bytes32 id);\r\n   event DepositMade(bytes32 id, uint amount);\r\n\r\n   function createTrade(bytes32 uid, address[] tradeParties, bytes32[] tradePartiesRole, uint objCount) {\r\n    trades[uid].tradeParties = tradeParties;\r\n    for (uint i = 0; i < tradeParties.length; i++) {\r\n      trades[uid].tradePartiesRole[tradeParties[i]] = tradePartiesRole[i];\r\n    }\r\n    trades[uid].objCount=objCount;\r\n    TradeCreated(uid);\r\n   }\r\n\r\n   function upload(bytes32 uid, address sender, bytes32 docType, bytes _hash) {\r\n    bytes32 role = trades[uid].tradePartiesRole[sender];\r\n    if (isUploadAllowed(role, docType)) {\r\n      uint currIndex = trades[uid].typeToDoc[docType].version++;\r\n      trades[uid].typeToDoc[docType].versionDir[currIndex] = _hash;\r\n      trades[uid].typeToDoc[docType].stat = Status.UNDER_REVIEW;\r\n      DocumentUploaded(uid,docType);\r\n    } else return;\r\n  }\r\n  function isUploadAllowed(bytes32 role, bytes32 docType) internal returns(bool success) {\r\n     bool isAllowed = false;\r\n     if ((role == \"buyer\" && (docType == \"PurchaseOrder\")) ||\r\n       ((role == \"seller\") && (docType == \"Invoice\")) ||\r\n       (role == \"shipper\" && docType == \"BillOfLading\") || (role == \"insurer\" && docType == \"InuranceQuotation\")) {\r\n       isAllowed = true;\r\n     }\r\n     return isAllowed;\r\n   }\r\n   function payToSeller(bytes32 id) {\r\n   if(!isAmtMet) {\r\n    revert(\"Incorrect Amount Received!\");\r\n   }\r\n     if(now>trades[id].shippingDate+trades[id].loc.numDays && trades[id].shippingDate<(trades[id].locIssueDate+trades[id].loc.numDays)) {\r\n       trades[id].ethAddressByRole[\"seller\"].transfer(trades[id].loc.creditAmt);\r\n       SellerPayed(id, true);\r\n     }\r\n     SellerPayed(id, false);\r\n   }\r\n   function payToInsurer(bytes32 id) {\r\n     trades[id].ethAddressByRole[\"insurer\"].transfer(trades[id].insuranceAmt);\r\n     InsurerPayed(id);\r\n   }\r\n   bool isAmtMet=false;\r\n   function isAmountMet(uint amountReceived, bytes32 id) returns (bool) {\r\n    if(trades[id].objCount==amountReceived) {\r\n      isAmtMet=true;\r\n      return true;\r\n    }\r\n    isAmtMet=false;\r\n    return false;\r\n   }\r\n   function depositFunds(bytes32 id) payable{\r\n\r\n    DepositMade(id, msg.value);\r\n   }\r\n}\r\n",
  "sourcePath": "C:\\Users\\hlee9\\OneDrive\\Documents\\Github\\hello-world\\contracts\\mainContract.sol",
  "compiler": {
    "name": "solc",
    "version": "0.4.24+commit.e67f0147.Emscripten.clang"
  },
  "schemaVersion": "2.0.0",
  "updatedAt": "2018-07-04T09:18:57.045Z"
}