{
  "contractName": "TradeRegulation",
  "abi": [
    {
      "constant": true,
      "inputs": [],
      "name": "owner",
      "outputs": [
        {
          "name": "",
          "type": "address"
        }
      ],
      "payable": false,
      "stateMutability": "view",
      "type": "function"
    },
    {
      "anonymous": false,
      "inputs": [
        {
          "indexed": false,
          "name": "id",
          "type": "bytes32"
        }
      ],
      "name": "TradeCreated",
      "type": "event"
    },
    {
      "anonymous": false,
      "inputs": [
        {
          "indexed": false,
          "name": "id",
          "type": "bytes32"
        },
        {
          "indexed": false,
          "name": "docType",
          "type": "bytes32"
        }
      ],
      "name": "DocumentUploaded",
      "type": "event"
    },
    {
      "anonymous": false,
      "inputs": [
        {
          "indexed": false,
          "name": "id",
          "type": "bytes32"
        },
        {
          "indexed": false,
          "name": "success",
          "type": "bool"
        }
      ],
      "name": "SellerPayed",
      "type": "event"
    },
    {
      "anonymous": false,
      "inputs": [
        {
          "indexed": false,
          "name": "id",
          "type": "bytes32"
        }
      ],
      "name": "InsurerPayed",
      "type": "event"
    },
    {
      "anonymous": false,
      "inputs": [
        {
          "indexed": false,
          "name": "id",
          "type": "bytes32"
        },
        {
          "indexed": false,
          "name": "amount",
          "type": "uint256"
        }
      ],
      "name": "DepositMade",
      "type": "event"
    },
    {
      "constant": false,
      "inputs": [
        {
          "name": "productType",
          "type": "bytes"
        }
      ],
      "name": "updateProductType",
      "outputs": [],
      "payable": false,
      "stateMutability": "nonpayable",
      "type": "function"
    },
    {
      "constant": false,
      "inputs": [
        {
          "name": "pI",
          "type": "uint256"
        }
      ],
      "name": "checkApproved",
      "outputs": [
        {
          "name": "",
          "type": "bool"
        }
      ],
      "payable": false,
      "stateMutability": "nonpayable",
      "type": "function"
    },
    {
      "constant": false,
      "inputs": [
        {
          "name": "pI",
          "type": "uint256"
        },
        {
          "name": "next",
          "type": "address"
        }
      ],
      "name": "approve",
      "outputs": [],
      "payable": false,
      "stateMutability": "nonpayable",
      "type": "function"
    },
    {
      "constant": false,
      "inputs": [
        {
          "name": "pI",
          "type": "uint256"
        },
        {
          "name": "next",
          "type": "address"
        }
      ],
      "name": "reject",
      "outputs": [],
      "payable": false,
      "stateMutability": "nonpayable",
      "type": "function"
    },
    {
      "constant": false,
      "inputs": [
        {
          "name": "pI",
          "type": "uint256"
        },
        {
          "name": "status",
          "type": "uint8"
        },
        {
          "name": "next",
          "type": "address"
        },
        {
          "name": "location",
          "type": "string"
        },
        {
          "name": "photo",
          "type": "bytes"
        },
        {
          "name": "",
          "type": "uint8"
        }
      ],
      "name": "uploadInfo",
      "outputs": [],
      "payable": false,
      "stateMutability": "nonpayable",
      "type": "function"
    },
    {
      "constant": false,
      "inputs": [
        {
          "name": "pI",
          "type": "uint256"
        },
        {
          "name": "stage",
          "type": "uint256"
        }
      ],
      "name": "checkNodes",
      "outputs": [
        {
          "name": "",
          "type": "string"
        },
        {
          "name": "",
          "type": "address"
        },
        {
          "name": "",
          "type": "uint8"
        },
        {
          "name": "",
          "type": "address"
        }
      ],
      "payable": false,
      "stateMutability": "nonpayable",
      "type": "function"
    },
    {
      "constant": false,
      "inputs": [
        {
          "name": "id",
          "type": "bytes32"
        },
        {
          "name": "tradeParties",
          "type": "address[]"
        },
        {
          "name": "tradePartiesRole",
          "type": "bytes32[]"
        },
        {
          "name": "objCount",
          "type": "uint256"
        },
        {
          "name": "insuranceAmt",
          "type": "uint256"
        }
      ],
      "name": "createTrade",
      "outputs": [],
      "payable": false,
      "stateMutability": "nonpayable",
      "type": "function"
    },
    {
      "constant": false,
      "inputs": [
        {
          "name": "uid",
          "type": "bytes32"
        },
        {
          "name": "sender",
          "type": "address"
        },
        {
          "name": "docType",
          "type": "bytes32"
        },
        {
          "name": "_hash",
          "type": "bytes"
        }
      ],
      "name": "upload",
      "outputs": [],
      "payable": false,
      "stateMutability": "nonpayable",
      "type": "function"
    },
    {
      "constant": false,
      "inputs": [
        {
          "name": "id",
          "type": "bytes32"
        }
      ],
      "name": "isRightParties",
      "outputs": [
        {
          "name": "",
          "type": "bool"
        }
      ],
      "payable": false,
      "stateMutability": "nonpayable",
      "type": "function"
    },
    {
      "constant": false,
      "inputs": [
        {
          "name": "id",
          "type": "bytes32"
        }
      ],
      "name": "payToSeller",
      "outputs": [],
      "payable": false,
      "stateMutability": "nonpayable",
      "type": "function"
    },
    {
      "constant": false,
      "inputs": [
        {
          "name": "id",
          "type": "bytes32"
        }
      ],
      "name": "payToInsurer",
      "outputs": [],
      "payable": false,
      "stateMutability": "nonpayable",
      "type": "function"
    },
    {
      "constant": false,
      "inputs": [
        {
          "name": "amountReceived",
          "type": "uint256"
        },
        {
          "name": "id",
          "type": "bytes32"
        }
      ],
      "name": "isAmountMet",
      "outputs": [
        {
          "name": "",
          "type": "bool"
        }
      ],
      "payable": false,
      "stateMutability": "nonpayable",
      "type": "function"
    },
    {
      "constant": false,
      "inputs": [
        {
          "name": "id",
          "type": "bytes32"
        }
      ],
      "name": "depositFunds",
      "outputs": [],
      "payable": true,
      "stateMutability": "payable",
      "type": "function"
    }
  ],
  "bytecode": "0x60806040526000600460006101000a81548160ff021916908315150217905550336000806101000a81548173ffffffffffffffffffffffffffffffffffffffff021916908373ffffffffffffffffffffffffffffffffffffffff160217905550611ccf8061006e6000396000f3006080604052600436106100d0576000357c0100000000000000000000000000000000000000000000000000000000900463ffffffff16806303ab52fd146100d55780630b182190146101225780630ea8e809146101755780631502ff081461021a57806348476eb61461024b57806352cc8ca71461033e5780638a46f4af146104095780638da5cb5b14610534578063945ce82d1461058b578063a4b6d443146105af578063af3be4d8146105f8578063c85ec0e81461063d578063ec6a170d146106a6578063febe4909146106d7575b600080fd5b3480156100e157600080fd5b5061012060048036038101908080359060200190929190803573ffffffffffffffffffffffffffffffffffffffff169060200190929190505050610724565b005b34801561012e57600080fd5b5061015b600480360381019080803590602001909291908035600019169060200190929190505050610857565b604051808215151515815260200191505060405180910390f35b34801561018157600080fd5b506102186004803603810190808035600019169060200190929190803573ffffffffffffffffffffffffffffffffffffffff1690602001909291908035600019169060200190929190803590602001908201803590602001908080601f01602080910402602001604051908101604052809392919081815260200183838082843782019150505050505091929192905050506108c9565b005b34801561022657600080fd5b506102496004803603810190808035600019169060200190929190505050610aa2565b005b34801561025757600080fd5b5061033c60048036038101908080359060200190929190803560ff169060200190929190803573ffffffffffffffffffffffffffffffffffffffff169060200190929190803590602001908201803590602001908080601f0160208091040260200160405190810160405280939291908181526020018383808284378201915050505050509192919290803590602001908201803590602001908080601f0160208091040260200160405190810160405280939291908181526020018383808284378201915050505050509192919290803560ff169060200190929190505050610bbc565b005b34801561034a57600080fd5b50610407600480360381019080803560001916906020019092919080359060200190820180359060200190808060200260200160405190810160405280939291908181526020018383602002808284378201915050505050509192919290803590602001908201803590602001908080602002602001604051908101604052809392919081815260200183836020028082843782019150505050505091929192908035906020019092919080359060200190929190505050610e6a565b005b34801561041557600080fd5b5061043e60048036038101908080359060200190929190803590602001909291905050506110c8565b60405180806020018573ffffffffffffffffffffffffffffffffffffffff1673ffffffffffffffffffffffffffffffffffffffff16815260200184600281111561048457fe5b60ff1681526020018373ffffffffffffffffffffffffffffffffffffffff1673ffffffffffffffffffffffffffffffffffffffff168152602001828103825286818151815260200191508051906020019080838360005b838110156104f65780820151818401526020810190506104db565b50505050905090810190601f1680156105235780820380516001836020036101000a031916815260200191505b509550505050505060405180910390f35b34801561054057600080fd5b5061054961120e565b604051808273ffffffffffffffffffffffffffffffffffffffff1673ffffffffffffffffffffffffffffffffffffffff16815260200191505060405180910390f35b6105ad6004803603810190808035600019169060200190929190505050611233565b005b3480156105bb57600080fd5b506105de600480360381019080803560001916906020019092919050505061127d565b604051808215151515815260200191505060405180910390f35b34801561060457600080fd5b5061062360048036038101908080359060200190929190505050611358565b604051808215151515815260200191505060405180910390f35b34801561064957600080fd5b506106a4600480360381019080803590602001908201803590602001908080601f0160208091040260200160405190810160405280939291908181526020018383808284378201915050505050509192919290505050611407565b005b3480156106b257600080fd5b506106d56004803603810190808035600019169060200190929190505050611429565b005b3480156106e357600080fd5b5061072260048036038101908080359060200190929190803573ffffffffffffffffffffffffffffffffffffffff1690602001909291905050506116e8565b005b600060016000848152602001908152602001600020805490501415151561074a57600080fd5b600160008381526020019081526020016000206001806000858152602001908152602001600020805490500381548110151561078257fe5b906000526020600020906008020160030160009054906101000a900473ffffffffffffffffffffffffffffffffffffffff1673ffffffffffffffffffffffffffffffffffffffff163373ffffffffffffffffffffffffffffffffffffffff161415610853576002600160008481526020019081526020016000206001806000868152602001908152602001600020805490500381548110151561082157fe5b906000526020600020906008020160020160146101000a81548160ff0219169083600281111561084d57fe5b02179055505b5050565b600082600260008460001916600019168152602001908152602001600020600e015414156108a3576001600460006101000a81548160ff021916908315150217905550600190506108c3565b6000600460006101000a81548160ff021916908315150217905550600090505b92915050565b60008060026000876000191660001916815260200190815260200160002060010160008673ffffffffffffffffffffffffffffffffffffffff1673ffffffffffffffffffffffffffffffffffffffff168152602001908152602001600020549150610934828561181b565b15610a94576002600087600019166000191681526020019081526020016000206002016000856000191660001916815260200190815260200160002060020160008154809291906001019190505590508260026000886000191660001916815260200190815260200160002060020160008660001916600019168152602001908152602001600020600001600083815260200190815260200160002090805190602001906109e39291906119a3565b5060016002600088600019166000191681526020019081526020016000206002016000866000191660001916815260200190815260200160002060010160006101000a81548160ff02191690836004811115610a3b57fe5b02179055507faf5ab1697ee2aab04faf1fd35b77b1d2a8285e78af221c858622acd5a5213266868560405180836000191660001916815260200182600019166000191681526020019250505060405180910390a1610a99565b610a9a565b5b505050505050565b60026000826000191660001916815260200190815260200160002060030160007f696e73757265720000000000000000000000000000000000000000000000000060001916815260200190815260200160002060009054906101000a900473ffffffffffffffffffffffffffffffffffffffff1673ffffffffffffffffffffffffffffffffffffffff166108fc600260008460001916600019168152602001908152602001600020600a01549081150290604051600060405180830381858888f19350505050158015610b79573d6000803e3d6000fd5b507fa2d501e5669efc556bcba8ba24946df7c6b3802db66c179e1625f44df9fa95b48160405180826000191660001916815260200191505060405180910390a150565b6000610bc787611358565b15610e615783816000019080519060200190610be4929190611a23565b50848160030160006101000a81548173ffffffffffffffffffffffffffffffffffffffff021916908373ffffffffffffffffffffffffffffffffffffffff160217905550338160020160006101000a81548173ffffffffffffffffffffffffffffffffffffffff021916908373ffffffffffffffffffffffffffffffffffffffff16021790555082816004019080519060200190610c839291906119a3565b5060016000888152602001908152602001600020819080600181540180825580915050906001820390600052602060002090600802016000909192909190915060008201816000019080546001816001161561010002031660029004610cea929190611aa3565b50600182015481600101556002820160009054906101000a900473ffffffffffffffffffffffffffffffffffffffff168160020160006101000a81548173ffffffffffffffffffffffffffffffffffffffff021916908373ffffffffffffffffffffffffffffffffffffffff1602179055506002820160149054906101000a900460ff168160020160146101000a81548160ff02191690836002811115610d8d57fe5b02179055506003820160009054906101000a900473ffffffffffffffffffffffffffffffffffffffff168160030160006101000a81548173ffffffffffffffffffffffffffffffffffffffff021916908373ffffffffffffffffffffffffffffffffffffffff16021790555060048201816004019080546001816001161561010002031660029004610e20929190611b2a565b50600682018160060160008201816000019080546001816001161561010002031660029004610e50929190611b2a565b506001820154816001015550505050505b50505050505050565b6000846002600088600019166000191681526020019081526020016000206000019080519060200190610e9e929190611bb1565b50600090505b8451811015610ff0578381815181101515610ebb57fe5b9060200190602002015160026000886000191660001916815260200190815260200160002060010160008784815181101515610ef357fe5b9060200190602002015173ffffffffffffffffffffffffffffffffffffffff1673ffffffffffffffffffffffffffffffffffffffff16815260200190815260200160002081600019169055508481815181101515610f4d57fe5b9060200190602002015160026000886000191660001916815260200190815260200160002060030160008684815181101515610f8557fe5b906020019060200201516000191660001916815260200190815260200160002060006101000a81548173ffffffffffffffffffffffffffffffffffffffff021916908373ffffffffffffffffffffffffffffffffffffffff1602179055508080600101915050610ea4565b82600260008860001916600019168152602001908152602001600020600e018190555081600260008860001916600019168152602001908152602001600020600a01819055506000600260008860001916600019168152602001908152602001600020600d018190555085600260008860001916600019168152602001908152602001600020600f0181600019169055507f72dbb4020c53749dc8545b23b311eeb1dff0b7c1104f9c22edf39a3c696ad8388660405180826000191660001916815260200191505060405180910390a1505050505050565b606060008060008060016000888152602001908152602001600020868154811015156110f057fe5b90600052602060002090600802019050806000018160020160009054906101000a900473ffffffffffffffffffffffffffffffffffffffff168260020160149054906101000a900460ff168360030160009054906101000a900473ffffffffffffffffffffffffffffffffffffffff16838054600181600116156101000203166002900480601f0160208091040260200160405190810160405280929190818152602001828054600181600116156101000203166002900480156111f55780601f106111ca576101008083540402835291602001916111f5565b820191906000526020600020905b8154815290600101906020018083116111d857829003601f168201915b5050505050935094509450945094505092959194509250565b6000809054906101000a900473ffffffffffffffffffffffffffffffffffffffff1681565b7f83b13d06086ba418bcd1e24e34adcb327aff5a1221770e0f9858190de5288ea281346040518083600019166000191681526020018281526020019250505060405180910390a150565b600080600090505b6002600084600019166000191681526020019081526020016000206000018054905081101561134d573373ffffffffffffffffffffffffffffffffffffffff16600260008560001916600019168152602001908152602001600020600001828154811015156112f057fe5b9060005260206000200160009054906101000a900473ffffffffffffffffffffffffffffffffffffffff1673ffffffffffffffffffffffffffffffffffffffff1614156113405760019150611352565b8080600101915050611285565b600091505b50919050565b60008060016000848152602001908152602001600020805490501415151561137f57600080fd5b6000600281111561138c57fe5b60016000848152602001908152602001600020600180600086815260200190815260200160002080549050038154811015156113c457fe5b906000526020600020906008020160020160149054906101000a900460ff1660028111156113ee57fe5b14156113fd5760019050611402565b600090505b919050565b6000818160060160000190805190602001906114249291906119a3565b505050565b600460009054906101000a900460ff1615156114ad576040517f08c379a000000000000000000000000000000000000000000000000000000000815260040180806020018281038252601a8152602001807f496e636f727265637420416d6f756e742052656365697665642100000000000081525060200191505060405180910390fd5b60026000826000191660001916815260200190815260200160002060040160000154600260008360001916600019168152602001908152602001600020600b0154014211801561155b575060026000826000191660001916815260200190815260200160002060040160000154600260008360001916600019168152602001908152602001600020600c015401600260008360001916600019168152602001908152602001600020600b0154105b801561156c575061156b8161127d565b5b156116995760026000826000191660001916815260200190815260200160002060030160007f73656c6c6572000000000000000000000000000000000000000000000000000060001916815260200190815260200160002060009054906101000a900473ffffffffffffffffffffffffffffffffffffffff1673ffffffffffffffffffffffffffffffffffffffff166108fc600260008460001916600019168152602001908152602001600020600401600101549081150290604051600060405180830381858888f1935050505015801561164b573d6000803e3d6000fd5b507f8be31eb62ffa82ee24c9cf44fde01133c028125014e5978a52e7bc06a8c72f0a816001604051808360001916600019168152602001821515151581526020019250505060405180910390a15b7f8be31eb62ffa82ee24c9cf44fde01133c028125014e5978a52e7bc06a8c72f0a816000604051808360001916600019168152602001821515151581526020019250505060405180910390a150565b600060016000848152602001908152602001600020805490501415151561170e57600080fd5b600160008381526020019081526020016000206001806000858152602001908152602001600020805490500381548110151561174657fe5b906000526020600020906008020160030160009054906101000a900473ffffffffffffffffffffffffffffffffffffffff1673ffffffffffffffffffffffffffffffffffffffff163373ffffffffffffffffffffffffffffffffffffffff16141561181757600060016000848152602001908152602001600020600180600086815260200190815260200160002080549050038154811015156117e557fe5b906000526020600020906008020160020160146101000a81548160ff0219169083600281111561181157fe5b02179055505b5050565b600080600090507f6275796572000000000000000000000000000000000000000000000000000000846000191614801561187857507f50757263686173654f72646572000000000000000000000000000000000000008360001916145b806118d557507f73656c6c6572000000000000000000000000000000000000000000000000000084600019161480156118d457507f496e766f696365000000000000000000000000000000000000000000000000008360001916145b5b8061193257507f7368697070657200000000000000000000000000000000000000000000000000846000191614801561193157507f42696c6c4f664c6164696e6700000000000000000000000000000000000000008360001916145b5b8061198f57507f696e737572657200000000000000000000000000000000000000000000000000846000191614801561198e57507f496e7572616e636551756f746174696f6e0000000000000000000000000000008360001916145b5b1561199957600190505b8091505092915050565b828054600181600116156101000203166002900490600052602060002090601f016020900481019282601f106119e457805160ff1916838001178555611a12565b82800160010185558215611a12579182015b82811115611a115782518255916020019190600101906119f6565b5b509050611a1f9190611c3b565b5090565b828054600181600116156101000203166002900490600052602060002090601f016020900481019282601f10611a6457805160ff1916838001178555611a92565b82800160010185558215611a92579182015b82811115611a91578251825591602001919060010190611a76565b5b509050611a9f9190611c3b565b5090565b828054600181600116156101000203166002900490600052602060002090601f016020900481019282601f10611adc5780548555611b19565b82800160010185558215611b1957600052602060002091601f016020900482015b82811115611b18578254825591600101919060010190611afd565b5b509050611b269190611c3b565b5090565b828054600181600116156101000203166002900490600052602060002090601f016020900481019282601f10611b635780548555611ba0565b82800160010185558215611ba057600052602060002091601f016020900482015b82811115611b9f578254825591600101919060010190611b84565b5b509050611bad9190611c3b565b5090565b828054828255906000526020600020908101928215611c2a579160200282015b82811115611c295782518260006101000a81548173ffffffffffffffffffffffffffffffffffffffff021916908373ffffffffffffffffffffffffffffffffffffffff16021790555091602001919060010190611bd1565b5b509050611c379190611c60565b5090565b611c5d91905b80821115611c59576000816000905550600101611c41565b5090565b90565b611ca091905b80821115611c9c57600081816101000a81549073ffffffffffffffffffffffffffffffffffffffff021916905550600101611c66565b5090565b905600a165627a7a72305820ba66c82a87e48ae1261e45202f2a223caebe1190c523d2f9bf81102fa8967e8e0029",
  "source": "pragma solidity ^0.4.4;\r\ncontract Ownable{\r\n  address public owner;\r\n  constructor() public {\r\n      owner=msg.sender;\r\n  }\r\n  modifier ownerOnly{\r\n      require(owner==msg.sender);\r\n      _;\r\n  }\r\n  function transferOwnership(address newOwner) internal ownerOnly{\r\n      require(newOwner!=address(0));\r\n      owner=newOwner;\r\n  }\r\n}\r\n\r\ncontract TradeRegulation is Ownable{\r\n    //trace\r\n    //The trace functionality is designed in the way that when a party produces a product\r\n    //it needs to upload the information regarding the product onto the blockchain. The proofstatus of\r\n    //that specific information will be set as pending right after the info is uploaded. By the time the receiver\r\n    //received the product, it can choose either to approve or reject it after careful examination. If it rejects it,\r\n    //further resolving actions will be executed.\r\n\r\n    struct Proof {//connect name to address\r\n        string location;\r\n        uint productID;\r\n        address owner;\r\n        proofStatus proof ;\r\n        address nextOwner;\r\n        bytes photo;\r\n        mapping(address => proofRoles) roleOfAddress;\r\n        characteristics productInfo;\r\n    }\r\n\r\n\r\n    //the content of characteristics is not comprehensive, but it will serve as a conceptual template\r\n    struct characteristics {\r\n\r\n                //enum damageOrNot;\r\n                //enum quality;\r\n                bytes productType;\r\n                uint temperature; //some product need transferring within certain temperature range\r\n\r\n\r\n    }\r\n\r\n\r\n    enum proofStatus {\r\n        approved,\r\n        pending,\r\n        rejected\r\n    }\r\n\r\n    enum proofRoles {\r\n        supplier,\r\n        distributor,\r\n        retailer,\r\n        consumer\r\n    }\r\n\r\n    mapping(uint=>Proof[]) trace;  //for a single product, there is only one supply chain\r\n\r\n    ///the functions of uploading info in the characterisitcs are not enough, but they will serve as a conceptual template\r\n    function updateProductType ( bytes productType ){\r\n        Proof temp;\r\n        temp.productInfo.productType = productType;\r\n\r\n    }\r\n\r\n    //@param pI = productID\r\n    //@param address of the next Owner\r\n    //@param the location of the checkpoint\r\n    //initialize a supply chain (done by raw materials producers)\r\n\r\n    /*function initSC(uint pI, address next, string loca, bytes pho){\r\n\r\n        //suppliers will have special address?\r\n         Proof temp;\r\n         temp.location = loca;\r\n         temp.nextOwner = next;\r\n         temp.owner = msg.sender; //could be modified\r\n         temp.proof = proofStatus.pending;\r\n         temp.photo = pho;\r\n         temp.roleOfAddress[msg.sender] = proofRoles.supplier;\r\n         trace[pI].push(temp);\r\n    }\r\n    */\r\n\r\n     function checkApproved (uint pI) returns (bool){\r\n            require(trace[pI].length != 0);\r\n                    if (trace[pI][trace[pI].length-1].proof == proofStatus.approved){\r\n                        return true;\r\n                    }\r\n                    return false;\r\n     }\r\n\r\n     function approve(uint pI, address next)\r\n        {\r\n            require(trace[pI].length != 0);\r\n            if (msg.sender == trace[pI][trace[pI].length-1].nextOwner){\r\n                trace[pI][trace[pI].length-1].proof = proofStatus.approved ;\r\n            }\r\n\r\n        }\r\n\r\n     function reject (uint pI, address next)\r\n        {\r\n            require(trace[pI].length != 0);\r\n            if (msg.sender == trace[pI][trace[pI].length-1].nextOwner){\r\n                trace[pI][trace[pI].length-1].proof = proofStatus.rejected ;\r\n            }\r\n        }\r\n\r\n    //@param pI = productID\r\n    //@param  status = whether you approve it or not\r\n    //approve that the status of the product is correct\r\n\r\n    //upload function can be modified according to real world situation; ex. if IoT can upload location by itself, there is no need to upload it manually.\r\n    //a separate function can be written\r\n\r\n    function uploadInfo (uint pI, proofStatus status, address next, string location, bytes photo, proofRoles)\r\n    {\r\n            if (checkApproved(pI)){\r\n            Proof temp;\r\n            temp.location = location;\r\n            temp.nextOwner = next;\r\n            temp.owner = msg.sender;\r\n            temp.photo=photo;\r\n            trace[pI].push(temp);\r\n\r\n        }\r\n    }\r\n\r\n    function checkNodes (uint pI, uint stage) returns (string, address, proofStatus, address){\r\n        Proof storage temp = trace[pI][stage];\r\n        return(temp.location, temp.owner, temp.proof, temp.nextOwner );//could be changed\r\n    }\r\n\r\n    //trace\r\n  enum Status{\r\n      NOT_UPLOADED,\r\n      UNDER_REVIEW,\r\n      APPROVED,\r\n      REJECTED,\r\n      PARTIALLY_APPROVED\r\n  }\r\n  struct doc{\r\n      mapping(uint=>bytes) versionDir;\r\n      Status stat;\r\n      uint version;\r\n  }\r\n  struct LetterOfCredit{\r\n      uint numDays;\r\n      uint creditAmt;\r\n      Status stat;\r\n  }\r\n  /*\r\n  Struct that has characteristics of number of days before payment,\r\n  the owed money amount, and the status of the invoice.\r\n  */\r\n  struct Invoice{\r\n      uint numDays;\r\n      uint owedAmt;\r\n      Status stat;\r\n  }\r\n  /*\r\n  Struct with characteristics of a transaction between parties in supply chain.\r\n  */\r\n  struct Tx{\r\n       address[] tradeParties;\r\n       mapping(address=>bytes32) tradePartiesRole;\r\n       mapping(bytes32=>doc) typeToDoc;\r\n       mapping(bytes32 => address) ethAddressByRole;\r\n       LetterOfCredit loc;\r\n       Invoice inv;\r\n       uint insuranceAmt;\r\n       uint shippingDate;\r\n       uint locIssueDate;\r\n       uint version;\r\n       uint objCount;\r\n       bytes32 tradeId;\r\n   }\r\n   mapping(bytes32=>Tx) trades;\r\n   mapping(bytes32=>uint) amountCondition;\r\n\r\n\r\n\r\n   event TradeCreated(bytes32 id);\r\n   event DocumentUploaded(bytes32 id, bytes32 docType);\r\n   event SellerPayed(bytes32 id, bool success);\r\n   event InsurerPayed(bytes32 id);\r\n   event DepositMade(bytes32 id, uint amount);\r\n\r\n   function createTrade(bytes32 id, address[] tradeParties, bytes32[] tradePartiesRole, uint objCount, uint insuranceAmt) {\r\n    trades[id].tradeParties = tradeParties;\r\n\r\n    for (uint i = 0; i < tradeParties.length; i++) {\r\n      trades[id].tradePartiesRole[tradeParties[i]] = tradePartiesRole[i];\r\n      trades[id].ethAddressByRole[tradePartiesRole[i]] = tradeParties[i];\r\n    }\r\n    trades[id].objCount=objCount;\r\n    trades[id].insuranceAmt=insuranceAmt;\r\n    trades[id].version=0;\r\n    trades[id].tradeId=id;\r\n    TradeCreated(id);\r\n   }\r\n\r\n\r\n   function upload(bytes32 uid, address sender, bytes32 docType, bytes _hash) {\r\n    bytes32 role = trades[uid].tradePartiesRole[sender];\r\n    if (isUploadAllowed(role, docType)) {\r\n      uint currIndex = trades[uid].typeToDoc[docType].version++;\r\n      trades[uid].typeToDoc[docType].versionDir[currIndex] = _hash;\r\n      trades[uid].typeToDoc[docType].stat = Status.UNDER_REVIEW;\r\n      DocumentUploaded(uid,docType);\r\n    } else return;\r\n  }\r\n\r\n    function isRightParties (bytes32 id ) returns (bool){\r\n       for (uint i = 0; i < trades[id].tradeParties.length; i++){\r\n            if ( trades[id].tradeParties[i]  == msg.sender){\r\n                return true;\r\n            }\r\n       }\r\n       return false;\r\n    }\r\n\r\n  function isUploadAllowed(bytes32 role, bytes32 docType) internal returns(bool success) {\r\n     bool isAllowed = false;\r\n     if ((role == \"buyer\" && (docType == \"PurchaseOrder\")) ||\r\n       ((role == \"seller\") && (docType == \"Invoice\")) ||\r\n       (role == \"shipper\" && docType == \"BillOfLading\") || (role == \"insurer\" && docType == \"InuranceQuotation\")) {\r\n       isAllowed = true;\r\n     }\r\n     return isAllowed;\r\n   }\r\n\r\n\r\n   function payToSeller(bytes32 id) {\r\n   if(!isAmtMet) {\r\n    revert(\"Incorrect Amount Received!\");\r\n   }\r\n     if(now>trades[id].shippingDate+trades[id].loc.numDays && trades[id].shippingDate<(trades[id].locIssueDate+trades[id].loc.numDays) && isRightParties(id)) {\r\n       trades[id].ethAddressByRole[\"seller\"].transfer(trades[id].loc.creditAmt);\r\n       SellerPayed(id, true);\r\n     }\r\n     SellerPayed(id, false);\r\n   }\r\n\r\n\r\n   function payToInsurer(bytes32 id) {\r\n     trades[id].ethAddressByRole[\"insurer\"].transfer(trades[id].insuranceAmt);\r\n     InsurerPayed(id);\r\n   }\r\n\r\n   bool isAmtMet=false;\r\n\r\n   function isAmountMet(uint amountReceived, bytes32 id) returns (bool) {\r\n    if(trades[id].objCount==amountReceived) {\r\n      isAmtMet=true;\r\n      return true;\r\n    }\r\n    isAmtMet=false;\r\n    return false;\r\n   }\r\n\r\n\r\n   function depositFunds(bytes32 id) payable{\r\n\r\n    DepositMade(id, msg.value);\r\n   }\r\n}\r\n",
  "sourcePath": "C:\\Users\\hlee9\\OneDrive\\Documents\\Github\\hello-world\\contracts\\mainContract.sol",
  "compiler": {
    "name": "solc",
    "version": "0.4.24+commit.e67f0147.Emscripten.clang"
  },
  "schemaVersion": "2.0.0",
  "updatedAt": "2018-07-04T10:34:32.930Z"
}